{"project/contracts/DCO.sol":{"DCOLock":{"abi":[{"inputs":[],"stateMutability":"nonpayable","type":"constructor"},{"inputs":[],"name":"AccessControlBadConfirmation","type":"error"},{"inputs":[{"internalType":"address","name":"account","type":"address"},{"internalType":"bytes32","name":"neededRole","type":"bytes32"}],"name":"AccessControlUnauthorizedAccount","type":"error"},{"inputs":[{"internalType":"address","name":"target","type":"address"}],"name":"AddressEmptyCode","type":"error"},{"inputs":[],"name":"AmountMustBeGreaterThanZero","type":"error"},{"inputs":[],"name":"CannotWithdrawBeforeGlobalRelease","type":"error"},{"inputs":[],"name":"DCONotActive","type":"error"},{"inputs":[{"internalType":"address","name":"implementation","type":"address"}],"name":"ERC1967InvalidImplementation","type":"error"},{"inputs":[],"name":"ERC1967NonPayable","type":"error"},{"inputs":[],"name":"FailedCall","type":"error"},{"inputs":[],"name":"GlobalReleaseTimeNotReached","type":"error"},{"inputs":[],"name":"InsufficientBalance","type":"error"},{"inputs":[],"name":"InsufficientTokens","type":"error"},{"inputs":[],"name":"InvalidAddress","type":"error"},{"inputs":[],"name":"InvalidAmount","type":"error"},{"inputs":[],"name":"InvalidDCOEndTime","type":"error"},{"inputs":[],"name":"InvalidIncrementThreshold","type":"error"},{"inputs":[],"name":"InvalidInitialization","type":"error"},{"inputs":[],"name":"InvalidThreshold","type":"error"},{"inputs":[],"name":"InvalidTimeStamp","type":"error"},{"inputs":[],"name":"InvalidTokenAddress","type":"error"},{"inputs":[],"name":"InvalidTokenPrice","type":"error"},{"inputs":[],"name":"InvalidWalletAddress","type":"error"},{"inputs":[],"name":"InvalidZCWAddress","type":"error"},{"inputs":[],"name":"NoBalanceToWithdraw","type":"error"},{"inputs":[],"name":"NoDonationsMade","type":"error"},{"inputs":[],"name":"NoTokensRemaining","type":"error"},{"inputs":[],"name":"NoTokensToWithdraw","type":"error"},{"inputs":[],"name":"NotInitializing","type":"error"},{"inputs":[],"name":"OneYearReleaseNotAvailable","type":"error"},{"inputs":[],"name":"OverflowDetected","type":"error"},{"inputs":[{"internalType":"address","name":"owner","type":"address"}],"name":"OwnableInvalidOwner","type":"error"},{"inputs":[{"internalType":"address","name":"account","type":"address"}],"name":"OwnableUnauthorizedAccount","type":"error"},{"inputs":[],"name":"ReentrancyGuardReentrantCall","type":"error"},{"inputs":[{"internalType":"address","name":"token","type":"address"}],"name":"SafeERC20FailedOperation","type":"error"},{"inputs":[],"name":"SevenMonthReleaseNotAvailable","type":"error"},{"inputs":[],"name":"TokenPriceMustBeGreaterThanZero","type":"error"},{"inputs":[],"name":"TransactionAlreadyProcessed","type":"error"},{"inputs":[],"name":"TransferFailed","type":"error"},{"inputs":[],"name":"UUPSUnauthorizedCallContext","type":"error"},{"inputs":[{"internalType":"bytes32","name":"slot","type":"bytes32"}],"name":"UUPSUnsupportedProxiableUUID","type":"error"},{"inputs":[],"name":"UnderflowDetected","type":"error"},{"anonymous":false,"inputs":[{"indexed":true,"internalType":"address","name":"owner","type":"address"},{"indexed":false,"internalType":"uint256","name":"amount","type":"uint256"}],"name":"AllTokensWithdrawn","type":"event"},{"anonymous":false,"inputs":[{"indexed":true,"internalType":"address","name":"newImplementation","type":"address"},{"indexed":false,"internalType":"uint256","name":"version","type":"uint256"}],"name":"ContractUpgraded","type":"event"},{"anonymous":false,"inputs":[{"indexed":false,"internalType":"uint256","name":"oldTime","type":"uint256"},{"indexed":false,"internalType":"uint256","name":"newTime","type":"uint256"}],"name":"DCOEndTimeUpdated","type":"event"},{"anonymous":false,"inputs":[{"indexed":true,"internalType":"address","name":"buyer","type":"address"},{"indexed":false,"internalType":"uint256","name":"amount","type":"uint256"},{"indexed":false,"internalType":"uint256","name":"timestamp","type":"uint256"}],"name":"DonationMade","type":"event"},{"anonymous":false,"inputs":[{"indexed":false,"internalType":"uint64","name":"version","type":"uint64"}],"name":"Initialized","type":"event"},{"anonymous":false,"inputs":[{"indexed":true,"internalType":"address","name":"previousOwner","type":"address"},{"indexed":true,"internalType":"address","name":"newOwner","type":"address"}],"name":"OwnershipTransferred","type":"event"},{"anonymous":false,"inputs":[{"indexed":false,"internalType":"uint256","name":"newThreshold","type":"uint256"},{"indexed":false,"internalType":"uint256","name":"tokenPrice","type":"uint256"}],"name":"PriceThresholdUpdated","type":"event"},{"anonymous":false,"inputs":[{"indexed":true,"internalType":"address","name":"releaser","type":"address"}],"name":"ReleaserAdded","type":"event"},{"anonymous":false,"inputs":[{"indexed":true,"internalType":"address","name":"releaser","type":"address"}],"name":"ReleaserRemoved","type":"event"},{"anonymous":false,"inputs":[{"indexed":true,"internalType":"bytes32","name":"role","type":"bytes32"},{"indexed":true,"internalType":"bytes32","name":"previousAdminRole","type":"bytes32"},{"indexed":true,"internalType":"bytes32","name":"newAdminRole","type":"bytes32"}],"name":"RoleAdminChanged","type":"event"},{"anonymous":false,"inputs":[{"indexed":true,"internalType":"bytes32","name":"role","type":"bytes32"},{"indexed":true,"internalType":"address","name":"account","type":"address"},{"indexed":true,"internalType":"address","name":"sender","type":"address"}],"name":"RoleGranted","type":"event"},{"anonymous":false,"inputs":[{"indexed":true,"internalType":"bytes32","name":"role","type":"bytes32"},{"indexed":true,"internalType":"address","name":"account","type":"address"},{"indexed":true,"internalType":"address","name":"sender","type":"address"}],"name":"RoleRevoked","type":"event"},{"anonymous":false,"inputs":[{"indexed":false,"internalType":"uint256","name":"sevenMonthsTime","type":"uint256"},{"indexed":false,"internalType":"uint256","name":"oneYearTime","type":"uint256"}],"name":"TimePeriodsSet","type":"event"},{"anonymous":false,"inputs":[{"indexed":false,"internalType":"uint256","name":"oldPrice","type":"uint256"},{"indexed":false,"internalType":"uint256","name":"newPrice","type":"uint256"}],"name":"TokenPriceUpdated","type":"event"},{"anonymous":false,"inputs":[{"indexed":false,"internalType":"uint256","name":"amount","type":"uint256"},{"indexed":false,"internalType":"uint256","name":"newRemaining","type":"uint256"}],"name":"TokensInjected","type":"event"},{"anonymous":false,"inputs":[{"indexed":true,"internalType":"address","name":"user","type":"address"},{"indexed":false,"internalType":"uint256","name":"amount","type":"uint256"},{"indexed":false,"internalType":"uint256","name":"lockTimestamp","type":"uint256"}],"name":"TokensLocked","type":"event"},{"anonymous":false,"inputs":[{"indexed":true,"internalType":"address","name":"buyer","type":"address"},{"indexed":false,"internalType":"uint256","name":"amount","type":"uint256"},{"indexed":false,"internalType":"uint256","name":"timestamp","type":"uint256"}],"name":"TokensReleased","type":"event"},{"anonymous":false,"inputs":[{"indexed":true,"internalType":"address","name":"owner","type":"address"},{"indexed":false,"internalType":"uint256","name":"amount","type":"uint256"}],"name":"TokensWithdrawn","type":"event"},{"anonymous":false,"inputs":[{"indexed":true,"internalType":"address","name":"user","type":"address"},{"indexed":false,"internalType":"uint256","name":"amount","type":"uint256"},{"indexed":false,"internalType":"uint256","name":"releaseType","type":"uint256"}],"name":"TokensWithdrawn","type":"event"},{"anonymous":false,"inputs":[{"indexed":true,"internalType":"address","name":"implementation","type":"address"}],"name":"Upgraded","type":"event"},{"anonymous":false,"inputs":[{"indexed":false,"internalType":"uint256","name":"amount","type":"uint256"},{"indexed":false,"internalType":"uint256","name":"timestamp","type":"uint256"}],"name":"ZCWDonated","type":"event"},{"stateMutability":"payable","type":"fallback"},{"inputs":[],"name":"DCO_END_TIME","outputs":[{"internalType":"uint256","name":"","type":"uint256"}],"stateMutability":"view","type":"function"},{"inputs":[],"name":"DEFAULT_ADMIN_ROLE","outputs":[{"internalType":"bytes32","name":"","type":"bytes32"}],"stateMutability":"view","type":"function"},{"inputs":[],"name":"DonateToZCW","outputs":[],"stateMutability":"nonpayable","type":"function"},{"inputs":[],"name":"ONE_YEAR","outputs":[{"internalType":"uint256","name":"","type":"uint256"}],"stateMutability":"view","type":"function"},{"inputs":[],"name":"RELEASER_ROLE","outputs":[{"internalType":"bytes32","name":"","type":"bytes32"}],"stateMutability":"view","type":"function"},{"inputs":[],"name":"SEVEN_MONTHS","outputs":[{"internalType":"uint256","name":"","type":"uint256"}],"stateMutability":"view","type":"function"},{"inputs":[],"name":"Status","outputs":[{"internalType":"string","name":"","type":"string"}],"stateMutability":"pure","type":"function"},{"inputs":[],"name":"UPGRADE_INTERFACE_VERSION","outputs":[{"internalType":"string","name":"","type":"string"}],"stateMutability":"view","type":"function"},{"inputs":[{"internalType":"address","name":"user","type":"address"},{"internalType":"uint256","name":"amount","type":"uint256"}],"name":"UpdateAllocations","outputs":[],"stateMutability":"nonpayable","type":"function"},{"inputs":[],"name":"VERSION","outputs":[{"internalType":"uint256","name":"","type":"uint256"}],"stateMutability":"view","type":"function"},{"inputs":[],"name":"WALLET_SUPPLIER_ROLE","outputs":[{"internalType":"bytes32","name":"","type":"bytes32"}],"stateMutability":"view","type":"function"},{"inputs":[],"name":"ZCW","outputs":[{"internalType":"address","name":"","type":"address"}],"stateMutability":"view","type":"function"},{"inputs":[{"internalType":"address","name":"releaser","type":"address"}],"name":"addReleaser","outputs":[],"stateMutability":"nonpayable","type":"function"},{"inputs":[],"name":"btcAddress","outputs":[{"internalType":"string","name":"","type":"string"}],"stateMutability":"view","type":"function"},{"inputs":[],"name":"ethAddress","outputs":[{"internalType":"address","name":"","type":"address"}],"stateMutability":"view","type":"function"},{"inputs":[],"name":"getAvailableForWithdrawal","outputs":[{"internalType":"uint256","name":"","type":"uint256"}],"stateMutability":"view","type":"function"},{"inputs":[{"internalType":"uint256","name":"usdtAmount","type":"uint256"},{"internalType":"uint256","name":"donationAmount","type":"uint256"}],"name":"getQuote","outputs":[{"internalType":"uint256","name":"tokensToReceive","type":"uint256"},{"internalType":"uint256","name":"donatedTokens","type":"uint256"}],"stateMutability":"view","type":"function"},{"inputs":[{"internalType":"bytes32","name":"role","type":"bytes32"}],"name":"getRoleAdmin","outputs":[{"internalType":"bytes32","name":"","type":"bytes32"}],"stateMutability":"view","type":"function"},{"inputs":[],"name":"getTimePeriods","outputs":[{"internalType":"uint256","name":"sevenMonthsTime","type":"uint256"},{"internalType":"uint256","name":"oneYearTime","type":"uint256"}],"stateMutability":"view","type":"function"},{"inputs":[{"internalType":"address","name":"user","type":"address"}],"name":"getTimeUntilRelease","outputs":[{"internalType":"uint256","name":"timeUntilSevenMonth","type":"uint256"},{"internalType":"uint256","name":"timeUntilOneYear","type":"uint256"}],"stateMutability":"view","type":"function"},{"inputs":[],"name":"getTokenPrice","outputs":[{"internalType":"uint256","name":"","type":"uint256"}],"stateMutability":"view","type":"function"},{"inputs":[],"name":"getTokenRemaining","outputs":[{"internalType":"uint256","name":"","type":"uint256"}],"stateMutability":"view","type":"function"},{"inputs":[],"name":"getTokenSold","outputs":[{"internalType":"uint256","name":"","type":"uint256"}],"stateMutability":"view","type":"function"},{"inputs":[],"name":"getTotalDonations","outputs":[{"internalType":"uint256","name":"","type":"uint256"}],"stateMutability":"view","type":"function"},{"inputs":[],"name":"getTotalLockedTokens","outputs":[{"internalType":"uint256","name":"","type":"uint256"}],"stateMutability":"view","type":"function"},{"inputs":[{"internalType":"address","name":"user","type":"address"}],"name":"getUserLockedTokens","outputs":[{"internalType":"uint256","name":"totalAmount","type":"uint256"},{"internalType":"uint256","name":"sevenMonthAmount","type":"uint256"},{"internalType":"uint256","name":"oneYearAmount","type":"uint256"},{"internalType":"uint256","name":"sevenMonthClaimed","type":"uint256"},{"internalType":"uint256","name":"oneYearClaimed","type":"uint256"},{"internalType":"uint256","name":"lockTimestamp","type":"uint256"}],"stateMutability":"view","type":"function"},{"inputs":[],"name":"getVersion","outputs":[{"internalType":"uint256","name":"","type":"uint256"}],"stateMutability":"pure","type":"function"},{"inputs":[{"internalType":"address","name":"user","type":"address"}],"name":"getWithdrawableAmount","outputs":[{"internalType":"uint256","name":"withdrawableAmount","type":"uint256"}],"stateMutability":"view","type":"function"},{"inputs":[{"internalType":"bytes32","name":"role","type":"bytes32"},{"internalType":"address","name":"account","type":"address"}],"name":"grantRole","outputs":[],"stateMutability":"nonpayable","type":"function"},{"inputs":[{"internalType":"bytes32","name":"role","type":"bytes32"},{"internalType":"address","name":"account","type":"address"}],"name":"hasRole","outputs":[{"internalType":"bool","name":"","type":"bool"}],"stateMutability":"view","type":"function"},{"inputs":[],"name":"incrementThreshold","outputs":[{"internalType":"uint256","name":"","type":"uint256"}],"stateMutability":"view","type":"function"},{"inputs":[{"internalType":"address","name":"initialOwner","type":"address"},{"internalType":"uint256","name":"tokenPrice_","type":"uint256"},{"internalType":"address","name":"zktcAddress","type":"address"},{"internalType":"address","name":"zcwAddress","type":"address"}],"name":"initialize","outputs":[],"stateMutability":"nonpayable","type":"function"},{"inputs":[{"internalType":"uint256","name":"amount","type":"uint256"}],"name":"injectSupply","outputs":[],"stateMutability":"nonpayable","type":"function"},{"inputs":[],"name":"isInitialized","outputs":[{"internalType":"bool","name":"","type":"bool"}],"stateMutability":"view","type":"function"},{"inputs":[],"name":"owner","outputs":[{"internalType":"address","name":"","type":"address"}],"stateMutability":"view","type":"function"},{"inputs":[],"name":"proxiableUUID","outputs":[{"internalType":"bytes32","name":"","type":"bytes32"}],"stateMutability":"view","type":"function"},{"inputs":[{"internalType":"uint256","name":"amount","type":"uint256"},{"internalType":"address","name":"buyer","type":"address"},{"internalType":"uint256","name":"donationAmount","type":"uint256"}],"name":"releaseZKTC","outputs":[],"stateMutability":"nonpayable","type":"function"},{"inputs":[{"internalType":"address","name":"releaser","type":"address"}],"name":"removeReleaser","outputs":[],"stateMutability":"nonpayable","type":"function"},{"inputs":[],"name":"renounceOwnership","outputs":[],"stateMutability":"nonpayable","type":"function"},{"inputs":[{"internalType":"bytes32","name":"role","type":"bytes32"},{"internalType":"address","name":"callerConfirmation","type":"address"}],"name":"renounceRole","outputs":[],"stateMutability":"nonpayable","type":"function"},{"inputs":[{"internalType":"bytes32","name":"role","type":"bytes32"},{"internalType":"address","name":"account","type":"address"}],"name":"revokeRole","outputs":[],"stateMutability":"nonpayable","type":"function"},{"inputs":[{"internalType":"uint256","name":"newDCOEndTime","type":"uint256"}],"name":"setDCOEndTime","outputs":[],"stateMutability":"nonpayable","type":"function"},{"inputs":[{"internalType":"uint256","name":"sevenMonthsTime_","type":"uint256"},{"internalType":"uint256","name":"oneYearTime_","type":"uint256"}],"name":"setTimePeriods","outputs":[],"stateMutability":"nonpayable","type":"function"},{"inputs":[{"internalType":"uint256","name":"newTokenPrice","type":"uint256"}],"name":"setTokenPrice","outputs":[],"stateMutability":"nonpayable","type":"function"},{"inputs":[{"internalType":"string","name":"btcAddress_","type":"string"},{"internalType":"address","name":"ethAddress_","type":"address"},{"internalType":"string","name":"solAddress_","type":"string"}],"name":"setWalletAddresses","outputs":[],"stateMutability":"nonpayable","type":"function"},{"inputs":[{"internalType":"address","name":"walletSupplier","type":"address"}],"name":"setWalletSupplier","outputs":[],"stateMutability":"nonpayable","type":"function"},{"inputs":[],"name":"solAddress","outputs":[{"internalType":"string","name":"","type":"string"}],"stateMutability":"view","type":"function"},{"inputs":[{"internalType":"bytes4","name":"interfaceId","type":"bytes4"}],"name":"supportsInterface","outputs":[{"internalType":"bool","name":"","type":"bool"}],"stateMutability":"view","type":"function"},{"inputs":[],"name":"threshold","outputs":[{"internalType":"uint256","name":"","type":"uint256"}],"stateMutability":"view","type":"function"},{"inputs":[],"name":"tokenPrice","outputs":[{"internalType":"uint256","name":"","type":"uint256"}],"stateMutability":"view","type":"function"},{"inputs":[],"name":"tokenSold","outputs":[{"internalType":"uint256","name":"","type":"uint256"}],"stateMutability":"view","type":"function"},{"inputs":[],"name":"totalDonations","outputs":[{"internalType":"uint256","name":"","type":"uint256"}],"stateMutability":"view","type":"function"},{"inputs":[],"name":"totalUsdGathered","outputs":[{"internalType":"uint256","name":"","type":"uint256"}],"stateMutability":"view","type":"function"},{"inputs":[{"internalType":"address","name":"newOwner","type":"address"}],"name":"transferOwnership","outputs":[],"stateMutability":"nonpayable","type":"function"},{"inputs":[{"internalType":"uint256","name":"incrementThreshold_","type":"uint256"}],"name":"updatePriceThresholds","outputs":[],"stateMutability":"nonpayable","type":"function"},{"inputs":[{"internalType":"uint256","name":"_threshold","type":"uint256"}],"name":"updateThreshold","outputs":[],"stateMutability":"nonpayable","type":"function"},{"inputs":[{"internalType":"uint256","name":"newUsdtGathered","type":"uint256"}],"name":"updateUsdtGathered","outputs":[],"stateMutability":"nonpayable","type":"function"},{"inputs":[{"internalType":"address","name":"newZCW","type":"address"}],"name":"updateZCW","outputs":[],"stateMutability":"nonpayable","type":"function"},{"inputs":[{"internalType":"address","name":"newImplementation","type":"address"},{"internalType":"bytes","name":"data","type":"bytes"}],"name":"upgradeToAndCall","outputs":[],"stateMutability":"payable","type":"function"},{"inputs":[{"internalType":"address","name":"","type":"address"}],"name":"userLockedTokens","outputs":[{"internalType":"uint256","name":"totalAmount","type":"uint256"},{"internalType":"uint256","name":"sevenMonthAmount","type":"uint256"},{"internalType":"uint256","name":"oneYearAmount","type":"uint256"},{"internalType":"uint256","name":"sevenMonthClaimed","type":"uint256"},{"internalType":"uint256","name":"oneYearClaimed","type":"uint256"},{"internalType":"uint256","name":"lockTimestamp","type":"uint256"}],"stateMutability":"view","type":"function"},{"inputs":[],"name":"withdraw","outputs":[],"stateMutability":"nonpayable","type":"function"},{"inputs":[],"name":"withdrawAllZKTC","outputs":[],"stateMutability":"nonpayable","type":"function"},{"inputs":[{"internalType":"uint256","name":"amount","type":"uint256"}],"name":"withdrawParticularZKTC","outputs":[],"stateMutability":"nonpayable","type":"function"},{"inputs":[],"name":"zkToken","outputs":[{"internalType":"contract IERC20","name":"","type":"address"}],"stateMutability":"view","type":"function"},{"stateMutability":"payable","type":"receive"}],"evm":{"bytecode":{"linkReferences":{},"object":"60a0604052306080525f600681905560075561927c6008556202191c600955348015610029575f5ffd5b50610032610037565b6100e9565b7ff0c57e16840df040f15088dc2f81fe391c3923bec73e23a9662efc9c229c6a00805468010000000000000000900460ff16156100875760405163f92ee8a960e01b815260040160405180910390fd5b80546001600160401b03908116146100e65780546001600160401b0319166001600160401b0390811782556040519081527fc7f505b2f371ae2175ee4913f4499e1f2633a7b5936321eed1cdaeb6115181d29060200160405180910390a15b50565b60805161350c61010f5f395f81816129d801528181612a010152612b87015261350c5ff3fe6080604052600436106103c6575f3560e01c806379c4a910116101f1578063c44633e91161010c578063de2ed8931161009f578063f67771751161006e578063f677717514610b7c578063f7d76ae514610b9b578063fc742aa914610baf578063ffa1ad7414610bc457610418565b8063de2ed89314610b0a578063e88f8ebd14610b1f578063f2fde38b14610b3e578063f5e633bb14610b5d57610418565b8063d547741f116100db578063d547741f14610a98578063d59d691714610ab7578063d69a599014610acc578063d7d7442f14610aeb57610418565b8063c44633e914610a32578063d178661014610a46578063d278b68214610a5a578063d34a772014610a7957610418565b8063a0ed3ac511610184578063ad3cb1cc11610153578063ad3cb1cc146109af578063b31b9ecf146109df578063b840adbc146109f4578063be0cbc2d14610a1357610418565b8063a0ed3ac514610949578063a0f9bf701461095d578063a217fddf1461097c578063ac28af241461098f57610418565b80638bf76f6c116101c05780638bf76f6c146108cf5780638da5cb5b146108ee57806391d148541461092a57806394d773631461094957610418565b806379c4a910146108715780637d8c87aa146108885780637ff9b596146108a657806382b13f96146108bb57610418565b80633f01c9cf116102e15780634f1ef28611610274578063715018a611610243578063715018a6146107f657806374c451f51461080a578063758af3ab14610829578063777c658f1461085d57610418565b80634f1ef2861461079b578063519ee19e146107ae57806352d1902d146107c35780636a61e5fc146107d757610418565b806342cde4e8116102b057806342cde4e81461071c57806345f09ce91461073157806349f6cf99146107685780634b94f50e1461078757610418565b80633f01c9cf1461062c5780633f03684c1461064b57806340000dc8146106c657806341398b15146106e557610418565b8063248a9ca311610359578063358394d811610328578063358394d8146105c657806336568abe146105e5578063392e53cd146106045780633ccfd60b1461061857610418565b8063248a9ca31461055557806328b4f5c4146105745780632f2ff15d146105935780633462f006146105b257610418565b806316d3bfbb1161039557806316d3bfbb146104df578063180c1e8c146104f45780631ce24e161461051557806322fec8231461053657610418565b80630178124c14610455578063018a7b131461048857806301ffc9a71461049d5780630d8e6e2c146104cc57610418565b366104185760405162461bcd60e51b815260206004820181905260248201527f44697265637420455448207472616e7366657273206e6f7420616c6c6f77656460448201526064015b60405180910390fd5b60405162461bcd60e51b8152602060048201526012602482015271119d5b98dd1a5bdb881b9bdd08199bdd5b9960721b604482015260640161040f565b348015610460575f5ffd5b506104755f5160206134575f395f51905f5281565b6040519081526020015b60405180910390f35b348015610493575f5ffd5b5061047560075481565b3480156104a8575f5ffd5b506104bc6104b7366004612f31565b610bd8565b604051901515815260200161047f565b3480156104d7575f5ffd5b506001610475565b3480156104ea575f5ffd5b5061047560055481565b3480156104ff575f5ffd5b5061051361050e366004612f73565b610c0e565b005b348015610520575f5ffd5b50610529611092565b60405161047f9190612fa6565b348015610541575f5ffd5b50610513610550366004612fdb565b61111e565b348015610560575f5ffd5b5061047561056f366004612fdb565b61115b565b34801561057f575f5ffd5b5061051361058e366004612fdb565b61117b565b34801561059e575f5ffd5b506105136105ad366004612ff2565b611198565b3480156105bd575f5ffd5b506105136111b4565b3480156105d1575f5ffd5b506105136105e036600461301c565b6112ff565b3480156105f0575f5ffd5b506105136105ff366004612ff2565b611614565b34801561060f575f5ffd5b506104bc61164c565b348015610623575f5ffd5b50610513611666565b348015610637575f5ffd5b5061051361064636600461310f565b6118e1565b348015610656575f5ffd5b50610699610665366004613183565b600e6020525f9081526040902080546001820154600283015460038401546004850154600590950154939492939192909186565b604080519687526020870195909552938501929092526060840152608083015260a082015260c00161047f565b3480156106d1575f5ffd5b506105136106e0366004613183565b61199c565b3480156106f0575f5ffd5b50600b54610704906001600160a01b031681565b6040516001600160a01b03909116815260200161047f565b348015610727575f5ffd5b5061047560095481565b34801561073c575f5ffd5b5060408051808201909152600f81526e135d5b1d1a5cda59c815dbdc9ad959608a1b6020820152610529565b348015610773575f5ffd5b50610513610782366004612fdb565b6119e6565b348015610792575f5ffd5b50600154610475565b6105136107a936600461319c565b611a30565b3480156107b9575f5ffd5b5061047560025481565b3480156107ce575f5ffd5b50610475611a4b565b3480156107e2575f5ffd5b506105136107f1366004612fdb565b611a66565b348015610801575f5ffd5b50610513611ae4565b348015610815575f5ffd5b506105136108243660046131fa565b611af5565b348015610834575f5ffd5b50610848610843366004613222565b611b3f565b6040805192835260208301919091520161047f565b348015610868575f5ffd5b50600654610475565b34801561087c575f5ffd5b50600454600554610848565b348015610893575f5ffd5b505f54610704906001600160a01b031681565b3480156108b1575f5ffd5b5061047560015481565b3480156108c6575f5ffd5b50610513611c83565b3480156108da575f5ffd5b506108486108e9366004613183565b611d3a565b3480156108f9575f5ffd5b507f9016d09d72d40fdae2fd8ceac6b6234c7706214fd39c1cd1e609a0528c199300546001600160a01b0316610704565b348015610935575f5ffd5b506104bc610944366004612ff2565b611e40565b348015610954575f5ffd5b50600254610475565b348015610968575f5ffd5b50610513610977366004612fdb565b611e76565b348015610987575f5ffd5b506104755f81565b34801561099a575f5ffd5b506104755f5160206134b75f395f51905f5281565b3480156109ba575f5ffd5b50610529604051806040016040528060058152602001640352e302e360dc1b81525081565b3480156109ea575f5ffd5b5061047560085481565b3480156109ff575f5ffd5b50610513610a0e366004613222565b611f57565b348015610a1e575f5ffd5b50610513610a2d366004613183565b611fae565b348015610a3d575f5ffd5b50610475612004565b348015610a51575f5ffd5b5061047561209a565b348015610a65575f5ffd5b50600d54610704906001600160a01b031681565b348015610a84575f5ffd5b50610513610a93366004613183565b6120a8565b348015610aa3575f5ffd5b50610513610ab2366004612ff2565b6120fe565b348015610ac2575f5ffd5b5061047560035481565b348015610ad7575f5ffd5b50610513610ae6366004613183565b61211a565b348015610af6575f5ffd5b50610513610b05366004612fdb565b61216b565b348015610b15575f5ffd5b5061047560065481565b348015610b2a575f5ffd5b50610699610b39366004613183565b612188565b348015610b49575f5ffd5b50610513610b58366004613183565b61222b565b348015610b68575f5ffd5b50610513610b77366004612fdb565b612265565b348015610b87575f5ffd5b50610475610b96366004613183565b6123fb565b348015610ba6575f5ffd5b5061052961255c565b348015610bba575f5ffd5b5061047560045481565b348015610bcf575f5ffd5b50610475600181565b5f6001600160e01b03198216637965db0b60e01b1480610c0857506301ffc9a760e01b6001600160e01b03198316145b92915050565b5f5160206134b75f395f51905f52610c2581612569565b610c2d612573565b600354421115610c5057604051631f5e0f4960e11b815260040160405180910390fd5b83158015610c5c575081155b15610c7a57604051635e85ae7360e01b815260040160405180910390fd5b6001600160a01b038316610ca15760405163e6c4247b60e01b815260040160405180910390fd5b6001545f90610cb886670de0b6b3a7640000613256565b610cc2919061326d565b90505f60015484670de0b6b3a7640000610cdc9190613256565b610ce6919061326d565b5f546040516370a0823160e01b81523060048201529192506001600160a01b0316906370a0823190602401602060405180830381865afa158015610d2c573d5f5f3e3d5ffd5b505050506040513d601f19601f82011682018060405250810190610d50919061328c565b5f03610d6f57604051637bfb1ee760e01b815260040160405180910390fd5b610d7981836132a3565b610d81612004565b1015610da0576040516378dbf0af60e11b815260040160405180910390fd5b610daa81836132a3565b60025f828254610dba91906132a3565b90915550610dca905084876132a3565b60075f828254610dda91906132a3565b90915550505b600954620f4240600754610df4919061326d565b10610fc0576103e860015f828254610e0c91906132a3565b9091555050600854600980545f90610e259084906132a3565b90915550506009546001546040515f5160206134375f395f51905f5292610e5492908252602082015260400190565b60405180910390a1600154611b5803610ed15760085460095f828254610e7a91906132b6565b90915550506204f5886008819055600980545f90610e999084906132a3565b90915550506009546001546040515f5160206134375f395f51905f5292610ec892908252602082015260400190565b60405180910390a15b600154611f4003610f465760085460095f828254610eef91906132b6565b9091555050620557306008819055600980545f90610f0e9084906132a3565b90915550506009546001546040515f5160206134375f395f51905f5292610f3d92908252602082015260400190565b60405180910390a15b600154612af803610fbb5760085460095f828254610f6491906132b6565b909155505062061a806008819055600980545f90610f839084906132a3565b90915550506009546001546040515f5160206134375f395f51905f5292610fb292908252602082015260400190565b60405180910390a15b610de0565b811561101457610fd085836125aa565b604080518381524260208201526001600160a01b038716917fc5c52c2a9175470464d5ea4429889e7df2ea88630a3d32f4d0d3d2d448656210910160405180910390a25b8015611074578060065f82825461102b91906132a3565b9091555050604080518281524260208201526001600160a01b038716917fd97bcdf12fa1d5342fc942da5eadf35c7597f34f8da7274c2b0d2ad979842679910160405180910390a25b505061108c60015f5160206134975f395f51905f5255565b50505050565b600c805461109f906132c9565b80601f01602080910402602001604051908101604052809291908181526020018280546110cb906132c9565b80156111165780601f106110ed57610100808354040283529160200191611116565b820191905f5260205f20905b8154815290600101906020018083116110f957829003601f168201915b505050505081565b5f5160206134b75f395f51905f5261113581612569565b815f03611155576040516395aacb6960e01b815260040160405180910390fd5b50600855565b5f9081525f5160206134775f395f51905f52602052604090206001015490565b5f5160206134b75f395f51905f5261119281612569565b50600755565b6111a18261115b565b6111aa81612569565b61108c838361278f565b6111bc612830565b6111c4612573565b6003544210156111e7576040516305b00e2360e01b815260040160405180910390fd5b5f6111f0612004565b9050805f036112125760405163177b02e160e31b815260040160405180910390fd5b5f546040516370a0823160e01b81523060048201526001600160a01b03909116906370a0823190602401602060405180830381865afa158015611257573d5f5f3e3d5ffd5b505050506040513d601f19601f8201168201806040525081019061127b919061328c565b81111561129b57604051631e9acf1760e31b815260040160405180910390fd5b5f546112b1906001600160a01b0316338361288b565b60405181815233907f50e6d6ec8be85e23f668a547e6fb3221517fe26b05001f047487a5d4e2f4dfad9060200160405180910390a2506112fd60015f5160206134975f395f51905f5255565b565b5f6113086128ea565b805490915060ff600160401b820416159067ffffffffffffffff165f8115801561132f5750825b90505f8267ffffffffffffffff16600114801561134b5750303b155b905081158015611359575080155b156113775760405163f92ee8a960e01b815260040160405180910390fd5b845467ffffffffffffffff1916600117855583156113a157845460ff60401b1916600160401b1785555b6001600160a01b0389166113f75760405162461bcd60e51b815260206004820152601c60248201527f4f776e65722063616e6e6f74206265207a65726f206164647265737300000000604482015260640161040f565b5f88116114545760405162461bcd60e51b815260206004820152602560248201527f546f6b656e207072696365206d7573742062652067726561746572207468616e604482015264207a65726f60d81b606482015260840161040f565b6001600160a01b0387166114aa5760405162461bcd60e51b815260206004820152601b60248201527f5a4b544320616464726573732063616e6e6f74206265207a65726f0000000000604482015260640161040f565b6001600160a01b0386166115005760405162461bcd60e51b815260206004820152601a60248201527f5a435720616464726573732063616e6e6f74206265207a65726f000000000000604482015260640161040f565b61150989612912565b611511612923565b61151961292b565b611521612923565b60018890555f80546001600160a01b03808a166001600160a01b031992831617909255600d80549289169290911691909117905561927c6008556202191c6009556115795f5160206134b75f395f51905f528a61278f565b506115915f5160206134575f395f51905f528a61278f565b5061159f42628527806132a3565b6003556115af4262f688806132a3565b6004556115c0426301c2e1006132a3565b600555831561160957845460ff60401b19168555604051600181527fc7f505b2f371ae2175ee4913f4499e1f2633a7b5936321eed1cdaeb6115181d29060200160405180910390a15b505050505050505050565b6001600160a01b038116331461163d5760405163334bd91960e11b815260040160405180910390fd5b611647828261293b565b505050565b5f5f6116566129b4565b67ffffffffffffffff1611905090565b61166e612573565b335f818152600e60205260408120805490910361169e57604051637dd28aa760e11b815260040160405180910390fd5b6004545f904290811061170a575f836003015484600101546116c091906132b6565b90508015611708578360010154846003015411156116f1576040516377e5fd5160e01b815260040160405180910390fd5b6116fb81846132a3565b6001850154600386015592505b505b6005548110611772575f8360040154846002015461172891906132b6565b9050801561177057836002015484600401541115611759576040516377e5fd5160e01b815260040160405180910390fd5b61176381846132a3565b6002850154600486015592505b505b815f036117bf5760045481101561179c576040516315cbfa3f60e31b815260040160405180910390fd5b6005548110156117bf5760405163069f7c8560e41b815260040160405180910390fd5b5f546040516370a0823160e01b81523060048201526001600160a01b03909116906370a0823190602401602060405180830381865afa158015611804573d5f5f3e3d5ffd5b505050506040513d601f19601f82011682018060405250810190611828919061328c565b82111561184857604051631e9acf1760e31b815260040160405180910390fd5b5f5461185e906001600160a01b0316858461288b565b836001600160a01b03167fffe903c0abe6b2dbb2f3474ef43d7a3c1fca49e5a774453423ca8e1952aabffa83600554866005015461189c91906132a3565b8410156118aa5760016118ad565b60025b6040805192835260ff90911660208301520160405180910390a2505050506112fd60015f5160206134975f395f51905f5255565b5f5160206134575f395f51905f526118f881612569565b6001600160a01b03831661191f5760405163a5f90a1160e01b815260040160405180910390fd5b83515f036119405760405163a5f90a1160e01b815260040160405180910390fd5b81515f036119615760405163a5f90a1160e01b815260040160405180910390fd5b600a61196d8582613345565b50600b80546001600160a01b0319166001600160a01b038516179055600c6119958382613345565b5050505050565b6119a4612830565b6001600160a01b0381166119cb5760405163e6c4247b60e01b815260040160405180910390fd5b6119e25f5160206134575f395f51905f528261278f565b5050565b6119ee612830565b600381905560408051828152602081018390527f580a9b185d29ee00d94379a7320cee44afb0849443ffa9917c0109fca626ea2591015b60405180910390a150565b611a386129cd565b611a4182612a71565b6119e28282612ac0565b5f611a54612b7c565b505f5160206134175f395f51905f5290565b5f5160206134b75f395f51905f52611a7d81612569565b815f03611a9d5760405163ae4d9cef60e01b815260040160405180910390fd5b600180549083905560408051828152602081018590527fd9cc159fa79112d02593601db522a6696e6c5c82d9e9ca9332f89ec824935bb091015b60405180910390a1505050565b611aec612830565b6112fd5f612bc5565b5f5160206134b75f395f51905f52611b0c81612569565b6001600160a01b0383165f908152600e602052604081205561164783611b3a84670de0b6b3a7640000613256565b6125aa565b5f8083158015611b4d575082155b15611b5c57505f905080611c7c565b6001545f03611b7e57604051637841c2c960e11b815260040160405180910390fd5b600154611b9385670de0b6b3a7640000613256565b611b9d919061326d565b600154909250611bb584670de0b6b3a7640000613256565b611bbf919061326d565b9050835f03611bd0575f9150611c7c565b6006545f80546040516370a0823160e01b81523060048201529192916001600160a01b03909116906370a0823190602401602060405180830381865afa158015611c1c573d5f5f3e3d5ffd5b505050506040513d601f19601f82011682018060405250810190611c40919061328c565b611c4a91906132b6565b9050805f03611c5c575f925050611c7c565b80611c6783856132a3565b1115611c7a57611c7782826132b6565b92505b505b9250929050565b5f5160206134b75f395f51905f52611c9a81612569565b611ca2612573565b6006545f03611cc3576040516285968560e71b815260040160405180910390fd5b600d546006545f54611ce3926001600160a01b039182169291169061288b565b5f6006819055604080519182524260208301527f221d91219c547c6a34f83c55b3bdcf0512a134e07ed11d99159fb71057bd0134910160405180910390a1611d3760015f5160206134975f395f51905f5255565b50565b5f806001600160a01b038316611d635760405163e6c4247b60e01b815260040160405180910390fd5b6001600160a01b0383165f908152600e60209081526040808320815160c081018352815480825260018301549482019490945260028201549281019290925260038101546060830152600481015460808301526005015460a08201529103611dd057505f93849350915050565b60045460a082015142915f91611de691906132a3565b90505f6005548460a00151611dfb91906132a3565b905081831115611e0d575f9550611e1a565b611e1783836132b6565b95505b80831115611e2a575f9450611e37565b611e3483826132b6565b94505b50505050915091565b5f9182525f5160206134775f395f51905f52602090815260408084206001600160a01b0393909316845291905290205460ff1690565b611e7e612830565b805f03611e9e57604051635e85ae7360e01b815260040160405180910390fd5b5f54611eb5906001600160a01b0316333084612c35565b5f546040516370a0823160e01b81523060048201527f0b5e9ae65a2569cfe9e69e81d01d7ea874eef55cf57e6fdaa67a8e221df5dba89183916001600160a01b03909116906370a0823190602401602060405180830381865afa158015611f1e573d5f5f3e3d5ffd5b505050506040513d601f19601f82011682018060405250810190611f42919061328c565b60408051928352602083019190915201611a25565b5f5160206134b75f395f51905f52611f6e81612569565b6004839055600582905560408051848152602081018490527f55b02d62ef7e420835c67ae781c1bf1cd2572975b6f81db134a1f3062bd143cc9101611ad7565b611fb6612830565b611fcd5f5160206134b75f395f51905f528261293b565b506040516001600160a01b038216907f32b0b795858b77348e5d930c9ba3a8d51fcc0993a2e7d185ec976b672a69294b905f90a250565b5f5f61200f60025490565b6006545f546040516370a0823160e01b815230600482015292935083926001600160a01b03909116906370a0823190602401602060405180830381865afa15801561205c573d5f5f3e3d5ffd5b505050506040513d601f19601f82011682018060405250810190612080919061328c565b61208a91906132b6565b61209491906132b6565b91505090565b5f6120a3612004565b905090565b6120b0612830565b6120c75f5160206134b75f395f51905f528261278f565b506040516001600160a01b038216907f4a0dcc22ed621bb3659ea4f8e3c7d48b6245290b813b11f6965a978790b81b20905f90a250565b6121078261115b565b61211081612569565b61108c838361293b565b612122612830565b6001600160a01b0381166121495760405163e6c4247b60e01b815260040160405180910390fd5b600d80546001600160a01b0319166001600160a01b0392909216919091179055565b5f5160206134b75f395f51905f5261218281612569565b50600955565b5f80808080806001600160a01b0387166121b55760405163e6c4247b60e01b815260040160405180910390fd5b505050506001600160a01b03929092165f908152600e6020908152604091829020825160c08101845281548082526001830154938201849052600283015494820185905260038301546060830181905260048401546080840181905260059094015460a090930183905290979396509394509091565b612233612830565b6001600160a01b03811661225c57604051631e4fbdf760e01b81525f600482015260240161040f565b611d3781612bc5565b61226d612830565b612275612573565b600354421015612298576040516305b00e2360e01b815260040160405180910390fd5b805f036122b857604051635e85ae7360e01b815260040160405180910390fd5b6122c460025f1961326d565b8111156122e45760405163162908e360e11b815260040160405180910390fd5b5f6122ed612004565b90508082111561231057604051631e9acf1760e31b815260040160405180910390fd5b5f546040516370a0823160e01b81523060048201526001600160a01b03909116906370a0823190602401602060405180830381865afa158015612355573d5f5f3e3d5ffd5b505050506040513d601f19601f82011682018060405250810190612379919061328c565b82111561239957604051631e9acf1760e31b815260040160405180910390fd5b5f546123af906001600160a01b0316338461288b565b60405182815233907f6352c5382c4a4578e712449ca65e83cdb392d045dfcf1cad9615189db2da244b9060200160405180910390a250611d3760015f5160206134975f395f51905f5255565b5f6001600160a01b0382166124235760405163e6c4247b60e01b815260040160405180910390fd5b6001600160a01b0382165f908152600e60209081526040808320815160c081018352815480825260018301549482019490945260028201549281019290925260038101546060830152600481015460808301526005015460a0820152910361248d57505f92915050565b60045460a08201515f935042916124a3916132a3565b81106124f3578160200151826060015111156124d2576040516377e5fd5160e01b815260040160405180910390fd5b816060015182602001516124e691906132b6565b6124f090846132a3565b92505b6005548260a0015161250591906132a3565b811061255557816040015182608001511115612534576040516377e5fd5160e01b815260040160405180910390fd5b8160800151826040015161254891906132b6565b61255290846132a3565b92505b5050919050565b600a805461109f906132c9565b611d378133612c6e565b5f5160206134975f395f51905f528054600119016125a457604051633ee5aeb560e01b815260040160405180910390fd5b60029055565b6001600160a01b0382166125d15760405163e6c4247b60e01b815260040160405180910390fd5b805f036125f157604051635e85ae7360e01b815260040160405180910390fd5b6001600160a01b0382165f908152600e602052604090208054156127055761261a825f196132b6565b8154111561263b57604051637883ad3d60e11b815260040160405180910390fd5b81815f015f82825461264d91906132a3565b909155505f905061265f60028461326d565b905061266c815f196132b6565b8260010154111561269057604051637883ad3d60e11b815260040160405180910390fd5b80826001015f8282546126a391906132a3565b909155505f90506126b482856132b6565b90506126c1815f196132b6565b836002015411156126e557604051637883ad3d60e11b815260040160405180910390fd5b80836002015f8282546126f891906132a3565b9091555061273492505050565b8181555f61271460028461326d565b60018301819055905061272781846132b6565b6002830155504260058201555b604080518381524260208201526001600160a01b038516917fd741e738a23fd18a03a26522320d9fc6cac1fed483e215ea9150fbc2fc43385d910160405180910390a2505050565b60015f5160206134975f395f51905f5255565b5f5f5160206134775f395f51905f526127a88484611e40565b612827575f848152602082815260408083206001600160a01b03871684529091529020805460ff191660011790556127dd3390565b6001600160a01b0316836001600160a01b0316857f2f8788117e7eff1d82e926ec794901d17c78024a50270940304540a733656f0d60405160405180910390a46001915050610c08565b5f915050610c08565b336128627f9016d09d72d40fdae2fd8ceac6b6234c7706214fd39c1cd1e609a0528c199300546001600160a01b031690565b6001600160a01b0316146112fd5760405163118cdaa760e01b815233600482015260240161040f565b6040516001600160a01b0383811660248301526044820183905261164791859182169063a9059cbb906064015b604051602081830303815290604052915060e01b6020820180516001600160e01b038381831617835250505050612ca7565b5f807ff0c57e16840df040f15088dc2f81fe391c3923bec73e23a9662efc9c229c6a00610c08565b61291a612d13565b611d3781612d38565b6112fd612d13565b612933612d13565b6112fd612d40565b5f5f5160206134775f395f51905f526129548484611e40565b15612827575f848152602082815260408083206001600160a01b0387168085529252808320805460ff1916905551339287917ff6391f5c32d9c69d2a47ea670b442974b53935d1edc7fd64eb21e047a839171b9190a46001915050610c08565b5f6129bd6128ea565b5467ffffffffffffffff16919050565b306001600160a01b037f0000000000000000000000000000000000000000000000000000000000000000161480612a5357507f00000000000000000000000000000000000000000000000000000000000000006001600160a01b0316612a475f5160206134175f395f51905f52546001600160a01b031690565b6001600160a01b031614155b156112fd5760405163703e46dd60e11b815260040160405180910390fd5b612a79612830565b806001600160a01b03167f36ad2521ebac3d572eeb7e618d4f6d0a8e1e6180634926360341d6beb52bf9d86001604051612ab591815260200190565b60405180910390a250565b816001600160a01b03166352d1902d6040518163ffffffff1660e01b8152600401602060405180830381865afa925050508015612b1a575060408051601f3d908101601f19168201909252612b179181019061328c565b60015b612b4257604051634c9c8ce360e01b81526001600160a01b038316600482015260240161040f565b5f5160206134175f395f51905f528114612b7257604051632a87526960e21b81526004810182905260240161040f565b6116478383612d48565b306001600160a01b037f000000000000000000000000000000000000000000000000000000000000000016146112fd5760405163703e46dd60e11b815260040160405180910390fd5b7f9016d09d72d40fdae2fd8ceac6b6234c7706214fd39c1cd1e609a0528c19930080546001600160a01b031981166001600160a01b03848116918217845560405192169182907f8be0079c531659141344cd1fd0a4f28419497f9722a3daafe3b4186f6b6457e0905f90a3505050565b6040516001600160a01b03848116602483015283811660448301526064820183905261108c9186918216906323b872dd906084016128b8565b612c788282611e40565b6119e25760405163e2517d3f60e01b81526001600160a01b03821660048201526024810183905260440161040f565b5f5f60205f8451602086015f885af180612cc6576040513d5f823e3d81fd5b50505f513d91508115612cdd578060011415612cea565b6001600160a01b0384163b155b1561108c57604051635274afe760e01b81526001600160a01b038516600482015260240161040f565b612d1b612d9d565b6112fd57604051631afcd79f60e31b815260040160405180910390fd5b612233612d13565b61277c612d13565b612d5182612db6565b6040516001600160a01b038316907fbc7cd75a20ee27fd9adebab32041f755214dbc6bffa90cc0225b39da2e5c2d3b905f90a2805115612d95576116478282612e19565b6119e2612e8b565b5f612da66128ea565b54600160401b900460ff16919050565b806001600160a01b03163b5f03612deb57604051634c9c8ce360e01b81526001600160a01b038216600482015260240161040f565b5f5160206134175f395f51905f5280546001600160a01b0319166001600160a01b0392909216919091179055565b60605f5f846001600160a01b031684604051612e359190613400565b5f60405180830381855af49150503d805f8114612e6d576040519150601f19603f3d011682016040523d82523d5f602084013e612e72565b606091505b5091509150612e82858383612eaa565b95945050505050565b34156112fd5760405163b398979f60e01b815260040160405180910390fd5b606082612ebf57612eba82612f09565b612f02565b8151158015612ed657506001600160a01b0384163b155b15612eff57604051639996b31560e01b81526001600160a01b038516600482015260240161040f565b50805b9392505050565b805115612f1857805160208201fd5b60405163d6bda27560e01b815260040160405180910390fd5b5f60208284031215612f41575f5ffd5b81356001600160e01b031981168114612f02575f5ffd5b80356001600160a01b0381168114612f6e575f5ffd5b919050565b5f5f5f60608486031215612f85575f5ffd5b83359250612f9560208501612f58565b929592945050506040919091013590565b602081525f82518060208401528060208501604085015e5f604082850101526040601f19601f83011684010191505092915050565b5f60208284031215612feb575f5ffd5b5035919050565b5f5f60408385031215613003575f5ffd5b8235915061301360208401612f58565b90509250929050565b5f5f5f5f6080858703121561302f575f5ffd5b61303885612f58565b93506020850135925061304d60408601612f58565b915061305b60608601612f58565b905092959194509250565b634e487b7160e01b5f52604160045260245ffd5b5f5f67ffffffffffffffff84111561309457613094613066565b50604051601f19601f85018116603f0116810181811067ffffffffffffffff821117156130c3576130c3613066565b6040528381529050808284018510156130da575f5ffd5b838360208301375f60208583010152509392505050565b5f82601f830112613100575f5ffd5b612f028383356020850161307a565b5f5f5f60608486031215613121575f5ffd5b833567ffffffffffffffff811115613137575f5ffd5b613143868287016130f1565b93505061315260208501612f58565b9150604084013567ffffffffffffffff81111561316d575f5ffd5b613179868287016130f1565b9150509250925092565b5f60208284031215613193575f5ffd5b612f0282612f58565b5f5f604083850312156131ad575f5ffd5b6131b683612f58565b9150602083013567ffffffffffffffff8111156131d1575f5ffd5b8301601f810185136131e1575f5ffd5b6131f08582356020840161307a565b9150509250929050565b5f5f6040838503121561320b575f5ffd5b61321483612f58565b946020939093013593505050565b5f5f60408385031215613233575f5ffd5b50508035926020909101359150565b634e487b7160e01b5f52601160045260245ffd5b8082028115828204841417610c0857610c08613242565b5f8261328757634e487b7160e01b5f52601260045260245ffd5b500490565b5f6020828403121561329c575f5ffd5b5051919050565b80820180821115610c0857610c08613242565b81810381811115610c0857610c08613242565b600181811c908216806132dd57607f821691505b6020821081036132fb57634e487b7160e01b5f52602260045260245ffd5b50919050565b601f82111561164757805f5260205f20601f840160051c810160208510156133265750805b601f840160051c820191505b81811015611995575f8155600101613332565b815167ffffffffffffffff81111561335f5761335f613066565b6133738161336d84546132c9565b84613301565b6020601f8211600181146133a5575f831561338e5750848201515b5f19600385901b1c1916600184901b178455611995565b5f84815260208120601f198516915b828110156133d457878501518255602094850194600190920191016133b4565b50848210156133f157868401515f19600387901b60f8161c191681555b50505050600190811b01905550565b5f82518060208501845e5f92019182525091905056fe360894a13ba1a3210667c828492db98dca3e2076cc3735a920a3ca505d382bbc1083c8bd456cb885adf7399998da5af81f20b2d6aac905025ff9aa4aa8d61b2c60621175a6f1e4198714bc7b01c33e5ad43acd70906b7ebc5fcb5a661fdd1f1502dd7bc7dec4dceedda775e58dd541e08a116c6c53815c0bd028192f7b6268009b779b17422d0df92223018b32b4d1fa46e071723d6817e2486d003becc55f0088f3509f0e42391f2d94ebfb2a37cbd0782b1b8f73715330017f4663290b8117a2646970667358221220254f6f9f3bb05c533dda339e36ed82738be40699ae07d6be9001941d57a9860964736f6c634300081c0033","opcodes":"PUSH1 0xA0 PUSH1 0x40 MSTORE ADDRESS PUSH1 0x80 MSTORE PUSH0 PUSH1 0x6 DUP2 SWAP1 SSTORE PUSH1 0x7 SSTORE PUSH2 0x927C PUSH1 0x8 SSTORE PUSH3 0x2191C PUSH1 0x9 SSTORE CALLVALUE DUP1 ISZERO PUSH2 0x29 JUMPI PUSH0 PUSH0 REVERT JUMPDEST POP PUSH2 0x32 PUSH2 0x37 JUMP JUMPDEST PUSH2 0xE9 JUMP JUMPDEST PUSH32 0xF0C57E16840DF040F15088DC2F81FE391C3923BEC73E23A9662EFC9C229C6A00 DUP1 SLOAD PUSH9 0x10000000000000000 SWAP1 DIV PUSH1 0xFF AND ISZERO PUSH2 0x87 JUMPI PUSH1 0x40 MLOAD PUSH4 0xF92EE8A9 PUSH1 0xE0 SHL DUP2 MSTORE PUSH1 0x4 ADD PUSH1 0x40 MLOAD DUP1 SWAP2 SUB SWAP1 REVERT JUMPDEST DUP1 SLOAD PUSH1 0x1 PUSH1 0x1 PUSH1 0x40 SHL SUB SWAP1 DUP2 AND EQ PUSH2 0xE6 JUMPI DUP1 SLOAD PUSH1 0x1 PUSH1 0x1 PUSH1 0x40 SHL SUB NOT AND PUSH1 0x1 PUSH1 0x1 PUSH1 0x40 SHL SUB SWAP1 DUP2 OR DUP3 SSTORE PUSH1 0x40 MLOAD SWAP1 DUP2 MSTORE PUSH32 0xC7F505B2F371AE2175EE4913F4499E1F2633A7B5936321EED1CDAEB6115181D2 SWAP1 PUSH1 0x20 ADD PUSH1 0x40 MLOAD DUP1 SWAP2 SUB SWAP1 LOG1 JUMPDEST POP JUMP JUMPDEST PUSH1 0x80 MLOAD PUSH2 0x350C PUSH2 0x10F PUSH0 CODECOPY PUSH0 DUP2 DUP2 PUSH2 0x29D8 ADD MSTORE DUP2 DUP2 PUSH2 0x2A01 ADD MSTORE PUSH2 0x2B87 ADD MSTORE PUSH2 0x350C PUSH0 RETURN INVALID PUSH1 0x80 PUSH1 0x40 MSTORE PUSH1 0x4 CALLDATASIZE LT PUSH2 0x3C6 JUMPI PUSH0 CALLDATALOAD PUSH1 0xE0 SHR DUP1 PUSH4 0x79C4A910 GT PUSH2 0x1F1 JUMPI DUP1 PUSH4 0xC44633E9 GT PUSH2 0x10C JUMPI DUP1 PUSH4 0xDE2ED893 GT PUSH2 0x9F JUMPI DUP1 PUSH4 0xF6777175 GT PUSH2 0x6E JUMPI DUP1 PUSH4 0xF6777175 EQ PUSH2 0xB7C JUMPI DUP1 PUSH4 0xF7D76AE5 EQ PUSH2 0xB9B JUMPI DUP1 PUSH4 0xFC742AA9 EQ PUSH2 0xBAF JUMPI DUP1 PUSH4 0xFFA1AD74 EQ PUSH2 0xBC4 JUMPI PUSH2 0x418 JUMP JUMPDEST DUP1 PUSH4 0xDE2ED893 EQ PUSH2 0xB0A JUMPI DUP1 PUSH4 0xE88F8EBD EQ PUSH2 0xB1F JUMPI DUP1 PUSH4 0xF2FDE38B EQ PUSH2 0xB3E JUMPI DUP1 PUSH4 0xF5E633BB EQ PUSH2 0xB5D JUMPI PUSH2 0x418 JUMP JUMPDEST DUP1 PUSH4 0xD547741F GT PUSH2 0xDB JUMPI DUP1 PUSH4 0xD547741F EQ PUSH2 0xA98 JUMPI DUP1 PUSH4 0xD59D6917 EQ PUSH2 0xAB7 JUMPI DUP1 PUSH4 0xD69A5990 EQ PUSH2 0xACC JUMPI DUP1 PUSH4 0xD7D7442F EQ PUSH2 0xAEB JUMPI PUSH2 0x418 JUMP JUMPDEST DUP1 PUSH4 0xC44633E9 EQ PUSH2 0xA32 JUMPI DUP1 PUSH4 0xD1786610 EQ PUSH2 0xA46 JUMPI DUP1 PUSH4 0xD278B682 EQ PUSH2 0xA5A JUMPI DUP1 PUSH4 0xD34A7720 EQ PUSH2 0xA79 JUMPI PUSH2 0x418 JUMP JUMPDEST DUP1 PUSH4 0xA0ED3AC5 GT PUSH2 0x184 JUMPI DUP1 PUSH4 0xAD3CB1CC GT PUSH2 0x153 JUMPI DUP1 PUSH4 0xAD3CB1CC EQ PUSH2 0x9AF JUMPI DUP1 PUSH4 0xB31B9ECF EQ PUSH2 0x9DF JUMPI DUP1 PUSH4 0xB840ADBC EQ PUSH2 0x9F4 JUMPI DUP1 PUSH4 0xBE0CBC2D EQ PUSH2 0xA13 JUMPI PUSH2 0x418 JUMP JUMPDEST DUP1 PUSH4 0xA0ED3AC5 EQ PUSH2 0x949 JUMPI DUP1 PUSH4 0xA0F9BF70 EQ PUSH2 0x95D JUMPI DUP1 PUSH4 0xA217FDDF EQ PUSH2 0x97C JUMPI DUP1 PUSH4 0xAC28AF24 EQ PUSH2 0x98F JUMPI PUSH2 0x418 JUMP JUMPDEST DUP1 PUSH4 0x8BF76F6C GT PUSH2 0x1C0 JUMPI DUP1 PUSH4 0x8BF76F6C EQ PUSH2 0x8CF JUMPI DUP1 PUSH4 0x8DA5CB5B EQ PUSH2 0x8EE JUMPI DUP1 PUSH4 0x91D14854 EQ PUSH2 0x92A JUMPI DUP1 PUSH4 0x94D77363 EQ PUSH2 0x949 JUMPI PUSH2 0x418 JUMP JUMPDEST DUP1 PUSH4 0x79C4A910 EQ PUSH2 0x871 JUMPI DUP1 PUSH4 0x7D8C87AA EQ PUSH2 0x888 JUMPI DUP1 PUSH4 0x7FF9B596 EQ PUSH2 0x8A6 JUMPI DUP1 PUSH4 0x82B13F96 EQ PUSH2 0x8BB JUMPI PUSH2 0x418 JUMP JUMPDEST DUP1 PUSH4 0x3F01C9CF GT PUSH2 0x2E1 JUMPI DUP1 PUSH4 0x4F1EF286 GT PUSH2 0x274 JUMPI DUP1 PUSH4 0x715018A6 GT PUSH2 0x243 JUMPI DUP1 PUSH4 0x715018A6 EQ PUSH2 0x7F6 JUMPI DUP1 PUSH4 0x74C451F5 EQ PUSH2 0x80A JUMPI DUP1 PUSH4 0x758AF3AB EQ PUSH2 0x829 JUMPI DUP1 PUSH4 0x777C658F EQ PUSH2 0x85D JUMPI PUSH2 0x418 JUMP JUMPDEST DUP1 PUSH4 0x4F1EF286 EQ PUSH2 0x79B JUMPI DUP1 PUSH4 0x519EE19E EQ PUSH2 0x7AE JUMPI DUP1 PUSH4 0x52D1902D EQ PUSH2 0x7C3 JUMPI DUP1 PUSH4 0x6A61E5FC EQ PUSH2 0x7D7 JUMPI PUSH2 0x418 JUMP JUMPDEST DUP1 PUSH4 0x42CDE4E8 GT PUSH2 0x2B0 JUMPI DUP1 PUSH4 0x42CDE4E8 EQ PUSH2 0x71C JUMPI DUP1 PUSH4 0x45F09CE9 EQ PUSH2 0x731 JUMPI DUP1 PUSH4 0x49F6CF99 EQ PUSH2 0x768 JUMPI DUP1 PUSH4 0x4B94F50E EQ PUSH2 0x787 JUMPI PUSH2 0x418 JUMP JUMPDEST DUP1 PUSH4 0x3F01C9CF EQ PUSH2 0x62C JUMPI DUP1 PUSH4 0x3F03684C EQ PUSH2 0x64B JUMPI DUP1 PUSH4 0x40000DC8 EQ PUSH2 0x6C6 JUMPI DUP1 PUSH4 0x41398B15 EQ PUSH2 0x6E5 JUMPI PUSH2 0x418 JUMP JUMPDEST DUP1 PUSH4 0x248A9CA3 GT PUSH2 0x359 JUMPI DUP1 PUSH4 0x358394D8 GT PUSH2 0x328 JUMPI DUP1 PUSH4 0x358394D8 EQ PUSH2 0x5C6 JUMPI DUP1 PUSH4 0x36568ABE EQ PUSH2 0x5E5 JUMPI DUP1 PUSH4 0x392E53CD EQ PUSH2 0x604 JUMPI DUP1 PUSH4 0x3CCFD60B EQ PUSH2 0x618 JUMPI PUSH2 0x418 JUMP JUMPDEST DUP1 PUSH4 0x248A9CA3 EQ PUSH2 0x555 JUMPI DUP1 PUSH4 0x28B4F5C4 EQ PUSH2 0x574 JUMPI DUP1 PUSH4 0x2F2FF15D EQ PUSH2 0x593 JUMPI DUP1 PUSH4 0x3462F006 EQ PUSH2 0x5B2 JUMPI PUSH2 0x418 JUMP JUMPDEST DUP1 PUSH4 0x16D3BFBB GT PUSH2 0x395 JUMPI DUP1 PUSH4 0x16D3BFBB EQ PUSH2 0x4DF JUMPI DUP1 PUSH4 0x180C1E8C EQ PUSH2 0x4F4 JUMPI DUP1 PUSH4 0x1CE24E16 EQ PUSH2 0x515 JUMPI DUP1 PUSH4 0x22FEC823 EQ PUSH2 0x536 JUMPI PUSH2 0x418 JUMP JUMPDEST DUP1 PUSH4 0x178124C EQ PUSH2 0x455 JUMPI DUP1 PUSH4 0x18A7B13 EQ PUSH2 0x488 JUMPI DUP1 PUSH4 0x1FFC9A7 EQ PUSH2 0x49D JUMPI DUP1 PUSH4 0xD8E6E2C EQ PUSH2 0x4CC JUMPI PUSH2 0x418 JUMP JUMPDEST CALLDATASIZE PUSH2 0x418 JUMPI PUSH1 0x40 MLOAD PUSH3 0x461BCD PUSH1 0xE5 SHL DUP2 MSTORE PUSH1 0x20 PUSH1 0x4 DUP3 ADD DUP2 SWAP1 MSTORE PUSH1 0x24 DUP3 ADD MSTORE PUSH32 0x44697265637420455448207472616E7366657273206E6F7420616C6C6F776564 PUSH1 0x44 DUP3 ADD MSTORE PUSH1 0x64 ADD JUMPDEST PUSH1 0x40 MLOAD DUP1 SWAP2 SUB SWAP1 REVERT JUMPDEST PUSH1 0x40 MLOAD PUSH3 0x461BCD PUSH1 0xE5 SHL DUP2 MSTORE PUSH1 0x20 PUSH1 0x4 DUP3 ADD MSTORE PUSH1 0x12 PUSH1 0x24 DUP3 ADD MSTORE PUSH18 0x119D5B98DD1A5BDB881B9BDD08199BDD5B99 PUSH1 0x72 SHL PUSH1 0x44 DUP3 ADD MSTORE PUSH1 0x64 ADD PUSH2 0x40F JUMP JUMPDEST CALLVALUE DUP1 ISZERO PUSH2 0x460 JUMPI PUSH0 PUSH0 REVERT JUMPDEST POP PUSH2 0x475 PUSH0 MLOAD PUSH1 0x20 PUSH2 0x3457 PUSH0 CODECOPY PUSH0 MLOAD SWAP1 PUSH0 MSTORE DUP2 JUMP JUMPDEST PUSH1 0x40 MLOAD SWAP1 DUP2 MSTORE PUSH1 0x20 ADD JUMPDEST PUSH1 0x40 MLOAD DUP1 SWAP2 SUB SWAP1 RETURN JUMPDEST CALLVALUE DUP1 ISZERO PUSH2 0x493 JUMPI PUSH0 PUSH0 REVERT JUMPDEST POP PUSH2 0x475 PUSH1 0x7 SLOAD DUP2 JUMP JUMPDEST CALLVALUE DUP1 ISZERO PUSH2 0x4A8 JUMPI PUSH0 PUSH0 REVERT JUMPDEST POP PUSH2 0x4BC PUSH2 0x4B7 CALLDATASIZE PUSH1 0x4 PUSH2 0x2F31 JUMP JUMPDEST PUSH2 0xBD8 JUMP JUMPDEST PUSH1 0x40 MLOAD SWAP1 ISZERO ISZERO DUP2 MSTORE PUSH1 0x20 ADD PUSH2 0x47F JUMP JUMPDEST CALLVALUE DUP1 ISZERO PUSH2 0x4D7 JUMPI PUSH0 PUSH0 REVERT JUMPDEST POP PUSH1 0x1 PUSH2 0x475 JUMP JUMPDEST CALLVALUE DUP1 ISZERO PUSH2 0x4EA JUMPI PUSH0 PUSH0 REVERT JUMPDEST POP PUSH2 0x475 PUSH1 0x5 SLOAD DUP2 JUMP JUMPDEST CALLVALUE DUP1 ISZERO PUSH2 0x4FF JUMPI PUSH0 PUSH0 REVERT JUMPDEST POP PUSH2 0x513 PUSH2 0x50E CALLDATASIZE PUSH1 0x4 PUSH2 0x2F73 JUMP JUMPDEST PUSH2 0xC0E JUMP JUMPDEST STOP JUMPDEST CALLVALUE DUP1 ISZERO PUSH2 0x520 JUMPI PUSH0 PUSH0 REVERT JUMPDEST POP PUSH2 0x529 PUSH2 0x1092 JUMP JUMPDEST PUSH1 0x40 MLOAD PUSH2 0x47F SWAP2 SWAP1 PUSH2 0x2FA6 JUMP JUMPDEST CALLVALUE DUP1 ISZERO PUSH2 0x541 JUMPI PUSH0 PUSH0 REVERT JUMPDEST POP PUSH2 0x513 PUSH2 0x550 CALLDATASIZE PUSH1 0x4 PUSH2 0x2FDB JUMP JUMPDEST PUSH2 0x111E JUMP JUMPDEST CALLVALUE DUP1 ISZERO PUSH2 0x560 JUMPI PUSH0 PUSH0 REVERT JUMPDEST POP PUSH2 0x475 PUSH2 0x56F CALLDATASIZE PUSH1 0x4 PUSH2 0x2FDB JUMP JUMPDEST PUSH2 0x115B JUMP JUMPDEST CALLVALUE DUP1 ISZERO PUSH2 0x57F JUMPI PUSH0 PUSH0 REVERT JUMPDEST POP PUSH2 0x513 PUSH2 0x58E CALLDATASIZE PUSH1 0x4 PUSH2 0x2FDB JUMP JUMPDEST PUSH2 0x117B JUMP JUMPDEST CALLVALUE DUP1 ISZERO PUSH2 0x59E JUMPI PUSH0 PUSH0 REVERT JUMPDEST POP PUSH2 0x513 PUSH2 0x5AD CALLDATASIZE PUSH1 0x4 PUSH2 0x2FF2 JUMP JUMPDEST PUSH2 0x1198 JUMP JUMPDEST CALLVALUE DUP1 ISZERO PUSH2 0x5BD JUMPI PUSH0 PUSH0 REVERT JUMPDEST POP PUSH2 0x513 PUSH2 0x11B4 JUMP JUMPDEST CALLVALUE DUP1 ISZERO PUSH2 0x5D1 JUMPI PUSH0 PUSH0 REVERT JUMPDEST POP PUSH2 0x513 PUSH2 0x5E0 CALLDATASIZE PUSH1 0x4 PUSH2 0x301C JUMP JUMPDEST PUSH2 0x12FF JUMP JUMPDEST CALLVALUE DUP1 ISZERO PUSH2 0x5F0 JUMPI PUSH0 PUSH0 REVERT JUMPDEST POP PUSH2 0x513 PUSH2 0x5FF CALLDATASIZE PUSH1 0x4 PUSH2 0x2FF2 JUMP JUMPDEST PUSH2 0x1614 JUMP JUMPDEST CALLVALUE DUP1 ISZERO PUSH2 0x60F JUMPI PUSH0 PUSH0 REVERT JUMPDEST POP PUSH2 0x4BC PUSH2 0x164C JUMP JUMPDEST CALLVALUE DUP1 ISZERO PUSH2 0x623 JUMPI PUSH0 PUSH0 REVERT JUMPDEST POP PUSH2 0x513 PUSH2 0x1666 JUMP JUMPDEST CALLVALUE DUP1 ISZERO PUSH2 0x637 JUMPI PUSH0 PUSH0 REVERT JUMPDEST POP PUSH2 0x513 PUSH2 0x646 CALLDATASIZE PUSH1 0x4 PUSH2 0x310F JUMP JUMPDEST PUSH2 0x18E1 JUMP JUMPDEST CALLVALUE DUP1 ISZERO PUSH2 0x656 JUMPI PUSH0 PUSH0 REVERT JUMPDEST POP PUSH2 0x699 PUSH2 0x665 CALLDATASIZE PUSH1 0x4 PUSH2 0x3183 JUMP JUMPDEST PUSH1 0xE PUSH1 0x20 MSTORE PUSH0 SWAP1 DUP2 MSTORE PUSH1 0x40 SWAP1 KECCAK256 DUP1 SLOAD PUSH1 0x1 DUP3 ADD SLOAD PUSH1 0x2 DUP4 ADD SLOAD PUSH1 0x3 DUP5 ADD SLOAD PUSH1 0x4 DUP6 ADD SLOAD PUSH1 0x5 SWAP1 SWAP6 ADD SLOAD SWAP4 SWAP5 SWAP3 SWAP4 SWAP2 SWAP3 SWAP1 SWAP2 DUP7 JUMP JUMPDEST PUSH1 0x40 DUP1 MLOAD SWAP7 DUP8 MSTORE PUSH1 0x20 DUP8 ADD SWAP6 SWAP1 SWAP6 MSTORE SWAP4 DUP6 ADD SWAP3 SWAP1 SWAP3 MSTORE PUSH1 0x60 DUP5 ADD MSTORE PUSH1 0x80 DUP4 ADD MSTORE PUSH1 0xA0 DUP3 ADD MSTORE PUSH1 0xC0 ADD PUSH2 0x47F JUMP JUMPDEST CALLVALUE DUP1 ISZERO PUSH2 0x6D1 JUMPI PUSH0 PUSH0 REVERT JUMPDEST POP PUSH2 0x513 PUSH2 0x6E0 CALLDATASIZE PUSH1 0x4 PUSH2 0x3183 JUMP JUMPDEST PUSH2 0x199C JUMP JUMPDEST CALLVALUE DUP1 ISZERO PUSH2 0x6F0 JUMPI PUSH0 PUSH0 REVERT JUMPDEST POP PUSH1 0xB SLOAD PUSH2 0x704 SWAP1 PUSH1 0x1 PUSH1 0x1 PUSH1 0xA0 SHL SUB AND DUP2 JUMP JUMPDEST PUSH1 0x40 MLOAD PUSH1 0x1 PUSH1 0x1 PUSH1 0xA0 SHL SUB SWAP1 SWAP2 AND DUP2 MSTORE PUSH1 0x20 ADD PUSH2 0x47F JUMP JUMPDEST CALLVALUE DUP1 ISZERO PUSH2 0x727 JUMPI PUSH0 PUSH0 REVERT JUMPDEST POP PUSH2 0x475 PUSH1 0x9 SLOAD DUP2 JUMP JUMPDEST CALLVALUE DUP1 ISZERO PUSH2 0x73C JUMPI PUSH0 PUSH0 REVERT JUMPDEST POP PUSH1 0x40 DUP1 MLOAD DUP1 DUP3 ADD SWAP1 SWAP2 MSTORE PUSH1 0xF DUP2 MSTORE PUSH15 0x135D5B1D1A5CDA59C815DBDC9AD959 PUSH1 0x8A SHL PUSH1 0x20 DUP3 ADD MSTORE PUSH2 0x529 JUMP JUMPDEST CALLVALUE DUP1 ISZERO PUSH2 0x773 JUMPI PUSH0 PUSH0 REVERT JUMPDEST POP PUSH2 0x513 PUSH2 0x782 CALLDATASIZE PUSH1 0x4 PUSH2 0x2FDB JUMP JUMPDEST PUSH2 0x19E6 JUMP JUMPDEST CALLVALUE DUP1 ISZERO PUSH2 0x792 JUMPI PUSH0 PUSH0 REVERT JUMPDEST POP PUSH1 0x1 SLOAD PUSH2 0x475 JUMP JUMPDEST PUSH2 0x513 PUSH2 0x7A9 CALLDATASIZE PUSH1 0x4 PUSH2 0x319C JUMP JUMPDEST PUSH2 0x1A30 JUMP JUMPDEST CALLVALUE DUP1 ISZERO PUSH2 0x7B9 JUMPI PUSH0 PUSH0 REVERT JUMPDEST POP PUSH2 0x475 PUSH1 0x2 SLOAD DUP2 JUMP JUMPDEST CALLVALUE DUP1 ISZERO PUSH2 0x7CE JUMPI PUSH0 PUSH0 REVERT JUMPDEST POP PUSH2 0x475 PUSH2 0x1A4B JUMP JUMPDEST CALLVALUE DUP1 ISZERO PUSH2 0x7E2 JUMPI PUSH0 PUSH0 REVERT JUMPDEST POP PUSH2 0x513 PUSH2 0x7F1 CALLDATASIZE PUSH1 0x4 PUSH2 0x2FDB JUMP JUMPDEST PUSH2 0x1A66 JUMP JUMPDEST CALLVALUE DUP1 ISZERO PUSH2 0x801 JUMPI PUSH0 PUSH0 REVERT JUMPDEST POP PUSH2 0x513 PUSH2 0x1AE4 JUMP JUMPDEST CALLVALUE DUP1 ISZERO PUSH2 0x815 JUMPI PUSH0 PUSH0 REVERT JUMPDEST POP PUSH2 0x513 PUSH2 0x824 CALLDATASIZE PUSH1 0x4 PUSH2 0x31FA JUMP JUMPDEST PUSH2 0x1AF5 JUMP JUMPDEST CALLVALUE DUP1 ISZERO PUSH2 0x834 JUMPI PUSH0 PUSH0 REVERT JUMPDEST POP PUSH2 0x848 PUSH2 0x843 CALLDATASIZE PUSH1 0x4 PUSH2 0x3222 JUMP JUMPDEST PUSH2 0x1B3F JUMP JUMPDEST PUSH1 0x40 DUP1 MLOAD SWAP3 DUP4 MSTORE PUSH1 0x20 DUP4 ADD SWAP2 SWAP1 SWAP2 MSTORE ADD PUSH2 0x47F JUMP JUMPDEST CALLVALUE DUP1 ISZERO PUSH2 0x868 JUMPI PUSH0 PUSH0 REVERT JUMPDEST POP PUSH1 0x6 SLOAD PUSH2 0x475 JUMP JUMPDEST CALLVALUE DUP1 ISZERO PUSH2 0x87C JUMPI PUSH0 PUSH0 REVERT JUMPDEST POP PUSH1 0x4 SLOAD PUSH1 0x5 SLOAD PUSH2 0x848 JUMP JUMPDEST CALLVALUE DUP1 ISZERO PUSH2 0x893 JUMPI PUSH0 PUSH0 REVERT JUMPDEST POP PUSH0 SLOAD PUSH2 0x704 SWAP1 PUSH1 0x1 PUSH1 0x1 PUSH1 0xA0 SHL SUB AND DUP2 JUMP JUMPDEST CALLVALUE DUP1 ISZERO PUSH2 0x8B1 JUMPI PUSH0 PUSH0 REVERT JUMPDEST POP PUSH2 0x475 PUSH1 0x1 SLOAD DUP2 JUMP JUMPDEST CALLVALUE DUP1 ISZERO PUSH2 0x8C6 JUMPI PUSH0 PUSH0 REVERT JUMPDEST POP PUSH2 0x513 PUSH2 0x1C83 JUMP JUMPDEST CALLVALUE DUP1 ISZERO PUSH2 0x8DA JUMPI PUSH0 PUSH0 REVERT JUMPDEST POP PUSH2 0x848 PUSH2 0x8E9 CALLDATASIZE PUSH1 0x4 PUSH2 0x3183 JUMP JUMPDEST PUSH2 0x1D3A JUMP JUMPDEST CALLVALUE DUP1 ISZERO PUSH2 0x8F9 JUMPI PUSH0 PUSH0 REVERT JUMPDEST POP PUSH32 0x9016D09D72D40FDAE2FD8CEAC6B6234C7706214FD39C1CD1E609A0528C199300 SLOAD PUSH1 0x1 PUSH1 0x1 PUSH1 0xA0 SHL SUB AND PUSH2 0x704 JUMP JUMPDEST CALLVALUE DUP1 ISZERO PUSH2 0x935 JUMPI PUSH0 PUSH0 REVERT JUMPDEST POP PUSH2 0x4BC PUSH2 0x944 CALLDATASIZE PUSH1 0x4 PUSH2 0x2FF2 JUMP JUMPDEST PUSH2 0x1E40 JUMP JUMPDEST CALLVALUE DUP1 ISZERO PUSH2 0x954 JUMPI PUSH0 PUSH0 REVERT JUMPDEST POP PUSH1 0x2 SLOAD PUSH2 0x475 JUMP JUMPDEST CALLVALUE DUP1 ISZERO PUSH2 0x968 JUMPI PUSH0 PUSH0 REVERT JUMPDEST POP PUSH2 0x513 PUSH2 0x977 CALLDATASIZE PUSH1 0x4 PUSH2 0x2FDB JUMP JUMPDEST PUSH2 0x1E76 JUMP JUMPDEST CALLVALUE DUP1 ISZERO PUSH2 0x987 JUMPI PUSH0 PUSH0 REVERT JUMPDEST POP PUSH2 0x475 PUSH0 DUP2 JUMP JUMPDEST CALLVALUE DUP1 ISZERO PUSH2 0x99A JUMPI PUSH0 PUSH0 REVERT JUMPDEST POP PUSH2 0x475 PUSH0 MLOAD PUSH1 0x20 PUSH2 0x34B7 PUSH0 CODECOPY PUSH0 MLOAD SWAP1 PUSH0 MSTORE DUP2 JUMP JUMPDEST CALLVALUE DUP1 ISZERO PUSH2 0x9BA JUMPI PUSH0 PUSH0 REVERT JUMPDEST POP PUSH2 0x529 PUSH1 0x40 MLOAD DUP1 PUSH1 0x40 ADD PUSH1 0x40 MSTORE DUP1 PUSH1 0x5 DUP2 MSTORE PUSH1 0x20 ADD PUSH5 0x352E302E3 PUSH1 0xDC SHL DUP2 MSTORE POP DUP2 JUMP JUMPDEST CALLVALUE DUP1 ISZERO PUSH2 0x9EA JUMPI PUSH0 PUSH0 REVERT JUMPDEST POP PUSH2 0x475 PUSH1 0x8 SLOAD DUP2 JUMP JUMPDEST CALLVALUE DUP1 ISZERO PUSH2 0x9FF JUMPI PUSH0 PUSH0 REVERT JUMPDEST POP PUSH2 0x513 PUSH2 0xA0E CALLDATASIZE PUSH1 0x4 PUSH2 0x3222 JUMP JUMPDEST PUSH2 0x1F57 JUMP JUMPDEST CALLVALUE DUP1 ISZERO PUSH2 0xA1E JUMPI PUSH0 PUSH0 REVERT JUMPDEST POP PUSH2 0x513 PUSH2 0xA2D CALLDATASIZE PUSH1 0x4 PUSH2 0x3183 JUMP JUMPDEST PUSH2 0x1FAE JUMP JUMPDEST CALLVALUE DUP1 ISZERO PUSH2 0xA3D JUMPI PUSH0 PUSH0 REVERT JUMPDEST POP PUSH2 0x475 PUSH2 0x2004 JUMP JUMPDEST CALLVALUE DUP1 ISZERO PUSH2 0xA51 JUMPI PUSH0 PUSH0 REVERT JUMPDEST POP PUSH2 0x475 PUSH2 0x209A JUMP JUMPDEST CALLVALUE DUP1 ISZERO PUSH2 0xA65 JUMPI PUSH0 PUSH0 REVERT JUMPDEST POP PUSH1 0xD SLOAD PUSH2 0x704 SWAP1 PUSH1 0x1 PUSH1 0x1 PUSH1 0xA0 SHL SUB AND DUP2 JUMP JUMPDEST CALLVALUE DUP1 ISZERO PUSH2 0xA84 JUMPI PUSH0 PUSH0 REVERT JUMPDEST POP PUSH2 0x513 PUSH2 0xA93 CALLDATASIZE PUSH1 0x4 PUSH2 0x3183 JUMP JUMPDEST PUSH2 0x20A8 JUMP JUMPDEST CALLVALUE DUP1 ISZERO PUSH2 0xAA3 JUMPI PUSH0 PUSH0 REVERT JUMPDEST POP PUSH2 0x513 PUSH2 0xAB2 CALLDATASIZE PUSH1 0x4 PUSH2 0x2FF2 JUMP JUMPDEST PUSH2 0x20FE JUMP JUMPDEST CALLVALUE DUP1 ISZERO PUSH2 0xAC2 JUMPI PUSH0 PUSH0 REVERT JUMPDEST POP PUSH2 0x475 PUSH1 0x3 SLOAD DUP2 JUMP JUMPDEST CALLVALUE DUP1 ISZERO PUSH2 0xAD7 JUMPI PUSH0 PUSH0 REVERT JUMPDEST POP PUSH2 0x513 PUSH2 0xAE6 CALLDATASIZE PUSH1 0x4 PUSH2 0x3183 JUMP JUMPDEST PUSH2 0x211A JUMP JUMPDEST CALLVALUE DUP1 ISZERO PUSH2 0xAF6 JUMPI PUSH0 PUSH0 REVERT JUMPDEST POP PUSH2 0x513 PUSH2 0xB05 CALLDATASIZE PUSH1 0x4 PUSH2 0x2FDB JUMP JUMPDEST PUSH2 0x216B JUMP JUMPDEST CALLVALUE DUP1 ISZERO PUSH2 0xB15 JUMPI PUSH0 PUSH0 REVERT JUMPDEST POP PUSH2 0x475 PUSH1 0x6 SLOAD DUP2 JUMP JUMPDEST CALLVALUE DUP1 ISZERO PUSH2 0xB2A JUMPI PUSH0 PUSH0 REVERT JUMPDEST POP PUSH2 0x699 PUSH2 0xB39 CALLDATASIZE PUSH1 0x4 PUSH2 0x3183 JUMP JUMPDEST PUSH2 0x2188 JUMP JUMPDEST CALLVALUE DUP1 ISZERO PUSH2 0xB49 JUMPI PUSH0 PUSH0 REVERT JUMPDEST POP PUSH2 0x513 PUSH2 0xB58 CALLDATASIZE PUSH1 0x4 PUSH2 0x3183 JUMP JUMPDEST PUSH2 0x222B JUMP JUMPDEST CALLVALUE DUP1 ISZERO PUSH2 0xB68 JUMPI PUSH0 PUSH0 REVERT JUMPDEST POP PUSH2 0x513 PUSH2 0xB77 CALLDATASIZE PUSH1 0x4 PUSH2 0x2FDB JUMP JUMPDEST PUSH2 0x2265 JUMP JUMPDEST CALLVALUE DUP1 ISZERO PUSH2 0xB87 JUMPI PUSH0 PUSH0 REVERT JUMPDEST POP PUSH2 0x475 PUSH2 0xB96 CALLDATASIZE PUSH1 0x4 PUSH2 0x3183 JUMP JUMPDEST PUSH2 0x23FB JUMP JUMPDEST CALLVALUE DUP1 ISZERO PUSH2 0xBA6 JUMPI PUSH0 PUSH0 REVERT JUMPDEST POP PUSH2 0x529 PUSH2 0x255C JUMP JUMPDEST CALLVALUE DUP1 ISZERO PUSH2 0xBBA JUMPI PUSH0 PUSH0 REVERT JUMPDEST POP PUSH2 0x475 PUSH1 0x4 SLOAD DUP2 JUMP JUMPDEST CALLVALUE DUP1 ISZERO PUSH2 0xBCF JUMPI PUSH0 PUSH0 REVERT JUMPDEST POP PUSH2 0x475 PUSH1 0x1 DUP2 JUMP JUMPDEST PUSH0 PUSH1 0x1 PUSH1 0x1 PUSH1 0xE0 SHL SUB NOT DUP3 AND PUSH4 0x7965DB0B PUSH1 0xE0 SHL EQ DUP1 PUSH2 0xC08 JUMPI POP PUSH4 0x1FFC9A7 PUSH1 0xE0 SHL PUSH1 0x1 PUSH1 0x1 PUSH1 0xE0 SHL SUB NOT DUP4 AND EQ JUMPDEST SWAP3 SWAP2 POP POP JUMP JUMPDEST PUSH0 MLOAD PUSH1 0x20 PUSH2 0x34B7 PUSH0 CODECOPY PUSH0 MLOAD SWAP1 PUSH0 MSTORE PUSH2 0xC25 DUP2 PUSH2 0x2569 JUMP JUMPDEST PUSH2 0xC2D PUSH2 0x2573 JUMP JUMPDEST PUSH1 0x3 SLOAD TIMESTAMP GT ISZERO PUSH2 0xC50 JUMPI PUSH1 0x40 MLOAD PUSH4 0x1F5E0F49 PUSH1 0xE1 SHL DUP2 MSTORE PUSH1 0x4 ADD PUSH1 0x40 MLOAD DUP1 SWAP2 SUB SWAP1 REVERT JUMPDEST DUP4 ISZERO DUP1 ISZERO PUSH2 0xC5C JUMPI POP DUP2 ISZERO JUMPDEST ISZERO PUSH2 0xC7A JUMPI PUSH1 0x40 MLOAD PUSH4 0x5E85AE73 PUSH1 0xE0 SHL DUP2 MSTORE PUSH1 0x4 ADD PUSH1 0x40 MLOAD DUP1 SWAP2 SUB SWAP1 REVERT JUMPDEST PUSH1 0x1 PUSH1 0x1 PUSH1 0xA0 SHL SUB DUP4 AND PUSH2 0xCA1 JUMPI PUSH1 0x40 MLOAD PUSH4 0xE6C4247B PUSH1 0xE0 SHL DUP2 MSTORE PUSH1 0x4 ADD PUSH1 0x40 MLOAD DUP1 SWAP2 SUB SWAP1 REVERT JUMPDEST PUSH1 0x1 SLOAD PUSH0 SWAP1 PUSH2 0xCB8 DUP7 PUSH8 0xDE0B6B3A7640000 PUSH2 0x3256 JUMP JUMPDEST PUSH2 0xCC2 SWAP2 SWAP1 PUSH2 0x326D JUMP JUMPDEST SWAP1 POP PUSH0 PUSH1 0x1 SLOAD DUP5 PUSH8 0xDE0B6B3A7640000 PUSH2 0xCDC SWAP2 SWAP1 PUSH2 0x3256 JUMP JUMPDEST PUSH2 0xCE6 SWAP2 SWAP1 PUSH2 0x326D JUMP JUMPDEST PUSH0 SLOAD PUSH1 0x40 MLOAD PUSH4 0x70A08231 PUSH1 0xE0 SHL DUP2 MSTORE ADDRESS PUSH1 0x4 DUP3 ADD MSTORE SWAP2 SWAP3 POP PUSH1 0x1 PUSH1 0x1 PUSH1 0xA0 SHL SUB AND SWAP1 PUSH4 0x70A08231 SWAP1 PUSH1 0x24 ADD PUSH1 0x20 PUSH1 0x40 MLOAD DUP1 DUP4 SUB DUP2 DUP7 GAS STATICCALL ISZERO DUP1 ISZERO PUSH2 0xD2C JUMPI RETURNDATASIZE PUSH0 PUSH0 RETURNDATACOPY RETURNDATASIZE PUSH0 REVERT JUMPDEST POP POP POP POP PUSH1 0x40 MLOAD RETURNDATASIZE PUSH1 0x1F NOT PUSH1 0x1F DUP3 ADD AND DUP3 ADD DUP1 PUSH1 0x40 MSTORE POP DUP2 ADD SWAP1 PUSH2 0xD50 SWAP2 SWAP1 PUSH2 0x328C JUMP JUMPDEST PUSH0 SUB PUSH2 0xD6F JUMPI PUSH1 0x40 MLOAD PUSH4 0x7BFB1EE7 PUSH1 0xE0 SHL DUP2 MSTORE PUSH1 0x4 ADD PUSH1 0x40 MLOAD DUP1 SWAP2 SUB SWAP1 REVERT JUMPDEST PUSH2 0xD79 DUP2 DUP4 PUSH2 0x32A3 JUMP JUMPDEST PUSH2 0xD81 PUSH2 0x2004 JUMP JUMPDEST LT ISZERO PUSH2 0xDA0 JUMPI PUSH1 0x40 MLOAD PUSH4 0x78DBF0AF PUSH1 0xE1 SHL DUP2 MSTORE PUSH1 0x4 ADD PUSH1 0x40 MLOAD DUP1 SWAP2 SUB SWAP1 REVERT JUMPDEST PUSH2 0xDAA DUP2 DUP4 PUSH2 0x32A3 JUMP JUMPDEST PUSH1 0x2 PUSH0 DUP3 DUP3 SLOAD PUSH2 0xDBA SWAP2 SWAP1 PUSH2 0x32A3 JUMP JUMPDEST SWAP1 SWAP2 SSTORE POP PUSH2 0xDCA SWAP1 POP DUP5 DUP8 PUSH2 0x32A3 JUMP JUMPDEST PUSH1 0x7 PUSH0 DUP3 DUP3 SLOAD PUSH2 0xDDA SWAP2 SWAP1 PUSH2 0x32A3 JUMP JUMPDEST SWAP1 SWAP2 SSTORE POP POP JUMPDEST PUSH1 0x9 SLOAD PUSH3 0xF4240 PUSH1 0x7 SLOAD PUSH2 0xDF4 SWAP2 SWAP1 PUSH2 0x326D JUMP JUMPDEST LT PUSH2 0xFC0 JUMPI PUSH2 0x3E8 PUSH1 0x1 PUSH0 DUP3 DUP3 SLOAD PUSH2 0xE0C SWAP2 SWAP1 PUSH2 0x32A3 JUMP JUMPDEST SWAP1 SWAP2 SSTORE POP POP PUSH1 0x8 SLOAD PUSH1 0x9 DUP1 SLOAD PUSH0 SWAP1 PUSH2 0xE25 SWAP1 DUP5 SWAP1 PUSH2 0x32A3 JUMP JUMPDEST SWAP1 SWAP2 SSTORE POP POP PUSH1 0x9 SLOAD PUSH1 0x1 SLOAD PUSH1 0x40 MLOAD PUSH0 MLOAD PUSH1 0x20 PUSH2 0x3437 PUSH0 CODECOPY PUSH0 MLOAD SWAP1 PUSH0 MSTORE SWAP3 PUSH2 0xE54 SWAP3 SWAP1 DUP3 MSTORE PUSH1 0x20 DUP3 ADD MSTORE PUSH1 0x40 ADD SWAP1 JUMP JUMPDEST PUSH1 0x40 MLOAD DUP1 SWAP2 SUB SWAP1 LOG1 PUSH1 0x1 SLOAD PUSH2 0x1B58 SUB PUSH2 0xED1 JUMPI PUSH1 0x8 SLOAD PUSH1 0x9 PUSH0 DUP3 DUP3 SLOAD PUSH2 0xE7A SWAP2 SWAP1 PUSH2 0x32B6 JUMP JUMPDEST SWAP1 SWAP2 SSTORE POP POP PUSH3 0x4F588 PUSH1 0x8 DUP2 SWAP1 SSTORE PUSH1 0x9 DUP1 SLOAD PUSH0 SWAP1 PUSH2 0xE99 SWAP1 DUP5 SWAP1 PUSH2 0x32A3 JUMP JUMPDEST SWAP1 SWAP2 SSTORE POP POP PUSH1 0x9 SLOAD PUSH1 0x1 SLOAD PUSH1 0x40 MLOAD PUSH0 MLOAD PUSH1 0x20 PUSH2 0x3437 PUSH0 CODECOPY PUSH0 MLOAD SWAP1 PUSH0 MSTORE SWAP3 PUSH2 0xEC8 SWAP3 SWAP1 DUP3 MSTORE PUSH1 0x20 DUP3 ADD MSTORE PUSH1 0x40 ADD SWAP1 JUMP JUMPDEST PUSH1 0x40 MLOAD DUP1 SWAP2 SUB SWAP1 LOG1 JUMPDEST PUSH1 0x1 SLOAD PUSH2 0x1F40 SUB PUSH2 0xF46 JUMPI PUSH1 0x8 SLOAD PUSH1 0x9 PUSH0 DUP3 DUP3 SLOAD PUSH2 0xEEF SWAP2 SWAP1 PUSH2 0x32B6 JUMP JUMPDEST SWAP1 SWAP2 SSTORE POP POP PUSH3 0x55730 PUSH1 0x8 DUP2 SWAP1 SSTORE PUSH1 0x9 DUP1 SLOAD PUSH0 SWAP1 PUSH2 0xF0E SWAP1 DUP5 SWAP1 PUSH2 0x32A3 JUMP JUMPDEST SWAP1 SWAP2 SSTORE POP POP PUSH1 0x9 SLOAD PUSH1 0x1 SLOAD PUSH1 0x40 MLOAD PUSH0 MLOAD PUSH1 0x20 PUSH2 0x3437 PUSH0 CODECOPY PUSH0 MLOAD SWAP1 PUSH0 MSTORE SWAP3 PUSH2 0xF3D SWAP3 SWAP1 DUP3 MSTORE PUSH1 0x20 DUP3 ADD MSTORE PUSH1 0x40 ADD SWAP1 JUMP JUMPDEST PUSH1 0x40 MLOAD DUP1 SWAP2 SUB SWAP1 LOG1 JUMPDEST PUSH1 0x1 SLOAD PUSH2 0x2AF8 SUB PUSH2 0xFBB JUMPI PUSH1 0x8 SLOAD PUSH1 0x9 PUSH0 DUP3 DUP3 SLOAD PUSH2 0xF64 SWAP2 SWAP1 PUSH2 0x32B6 JUMP JUMPDEST SWAP1 SWAP2 SSTORE POP POP PUSH3 0x61A80 PUSH1 0x8 DUP2 SWAP1 SSTORE PUSH1 0x9 DUP1 SLOAD PUSH0 SWAP1 PUSH2 0xF83 SWAP1 DUP5 SWAP1 PUSH2 0x32A3 JUMP JUMPDEST SWAP1 SWAP2 SSTORE POP POP PUSH1 0x9 SLOAD PUSH1 0x1 SLOAD PUSH1 0x40 MLOAD PUSH0 MLOAD PUSH1 0x20 PUSH2 0x3437 PUSH0 CODECOPY PUSH0 MLOAD SWAP1 PUSH0 MSTORE SWAP3 PUSH2 0xFB2 SWAP3 SWAP1 DUP3 MSTORE PUSH1 0x20 DUP3 ADD MSTORE PUSH1 0x40 ADD SWAP1 JUMP JUMPDEST PUSH1 0x40 MLOAD DUP1 SWAP2 SUB SWAP1 LOG1 JUMPDEST PUSH2 0xDE0 JUMP JUMPDEST DUP2 ISZERO PUSH2 0x1014 JUMPI PUSH2 0xFD0 DUP6 DUP4 PUSH2 0x25AA JUMP JUMPDEST PUSH1 0x40 DUP1 MLOAD DUP4 DUP2 MSTORE TIMESTAMP PUSH1 0x20 DUP3 ADD MSTORE PUSH1 0x1 PUSH1 0x1 PUSH1 0xA0 SHL SUB DUP8 AND SWAP2 PUSH32 0xC5C52C2A9175470464D5EA4429889E7DF2EA88630A3D32F4D0D3D2D448656210 SWAP2 ADD PUSH1 0x40 MLOAD DUP1 SWAP2 SUB SWAP1 LOG2 JUMPDEST DUP1 ISZERO PUSH2 0x1074 JUMPI DUP1 PUSH1 0x6 PUSH0 DUP3 DUP3 SLOAD PUSH2 0x102B SWAP2 SWAP1 PUSH2 0x32A3 JUMP JUMPDEST SWAP1 SWAP2 SSTORE POP POP PUSH1 0x40 DUP1 MLOAD DUP3 DUP2 MSTORE TIMESTAMP PUSH1 0x20 DUP3 ADD MSTORE PUSH1 0x1 PUSH1 0x1 PUSH1 0xA0 SHL SUB DUP8 AND SWAP2 PUSH32 0xD97BCDF12FA1D5342FC942DA5EADF35C7597F34F8DA7274C2B0D2AD979842679 SWAP2 ADD PUSH1 0x40 MLOAD DUP1 SWAP2 SUB SWAP1 LOG2 JUMPDEST POP POP PUSH2 0x108C PUSH1 0x1 PUSH0 MLOAD PUSH1 0x20 PUSH2 0x3497 PUSH0 CODECOPY PUSH0 MLOAD SWAP1 PUSH0 MSTORE SSTORE JUMP JUMPDEST POP POP POP POP JUMP JUMPDEST PUSH1 0xC DUP1 SLOAD PUSH2 0x109F SWAP1 PUSH2 0x32C9 JUMP JUMPDEST DUP1 PUSH1 0x1F ADD PUSH1 0x20 DUP1 SWAP2 DIV MUL PUSH1 0x20 ADD PUSH1 0x40 MLOAD SWAP1 DUP2 ADD PUSH1 0x40 MSTORE DUP1 SWAP3 SWAP2 SWAP1 DUP2 DUP2 MSTORE PUSH1 0x20 ADD DUP3 DUP1 SLOAD PUSH2 0x10CB SWAP1 PUSH2 0x32C9 JUMP JUMPDEST DUP1 ISZERO PUSH2 0x1116 JUMPI DUP1 PUSH1 0x1F LT PUSH2 0x10ED JUMPI PUSH2 0x100 DUP1 DUP4 SLOAD DIV MUL DUP4 MSTORE SWAP2 PUSH1 0x20 ADD SWAP2 PUSH2 0x1116 JUMP JUMPDEST DUP3 ADD SWAP2 SWAP1 PUSH0 MSTORE PUSH1 0x20 PUSH0 KECCAK256 SWAP1 JUMPDEST DUP2 SLOAD DUP2 MSTORE SWAP1 PUSH1 0x1 ADD SWAP1 PUSH1 0x20 ADD DUP1 DUP4 GT PUSH2 0x10F9 JUMPI DUP3 SWAP1 SUB PUSH1 0x1F AND DUP3 ADD SWAP2 JUMPDEST POP POP POP POP POP DUP2 JUMP JUMPDEST PUSH0 MLOAD PUSH1 0x20 PUSH2 0x34B7 PUSH0 CODECOPY PUSH0 MLOAD SWAP1 PUSH0 MSTORE PUSH2 0x1135 DUP2 PUSH2 0x2569 JUMP JUMPDEST DUP2 PUSH0 SUB PUSH2 0x1155 JUMPI PUSH1 0x40 MLOAD PUSH4 0x95AACB69 PUSH1 0xE0 SHL DUP2 MSTORE PUSH1 0x4 ADD PUSH1 0x40 MLOAD DUP1 SWAP2 SUB SWAP1 REVERT JUMPDEST POP PUSH1 0x8 SSTORE JUMP JUMPDEST PUSH0 SWAP1 DUP2 MSTORE PUSH0 MLOAD PUSH1 0x20 PUSH2 0x3477 PUSH0 CODECOPY PUSH0 MLOAD SWAP1 PUSH0 MSTORE PUSH1 0x20 MSTORE PUSH1 0x40 SWAP1 KECCAK256 PUSH1 0x1 ADD SLOAD SWAP1 JUMP JUMPDEST PUSH0 MLOAD PUSH1 0x20 PUSH2 0x34B7 PUSH0 CODECOPY PUSH0 MLOAD SWAP1 PUSH0 MSTORE PUSH2 0x1192 DUP2 PUSH2 0x2569 JUMP JUMPDEST POP PUSH1 0x7 SSTORE JUMP JUMPDEST PUSH2 0x11A1 DUP3 PUSH2 0x115B JUMP JUMPDEST PUSH2 0x11AA DUP2 PUSH2 0x2569 JUMP JUMPDEST PUSH2 0x108C DUP4 DUP4 PUSH2 0x278F JUMP JUMPDEST PUSH2 0x11BC PUSH2 0x2830 JUMP JUMPDEST PUSH2 0x11C4 PUSH2 0x2573 JUMP JUMPDEST PUSH1 0x3 SLOAD TIMESTAMP LT ISZERO PUSH2 0x11E7 JUMPI PUSH1 0x40 MLOAD PUSH4 0x5B00E23 PUSH1 0xE0 SHL DUP2 MSTORE PUSH1 0x4 ADD PUSH1 0x40 MLOAD DUP1 SWAP2 SUB SWAP1 REVERT JUMPDEST PUSH0 PUSH2 0x11F0 PUSH2 0x2004 JUMP JUMPDEST SWAP1 POP DUP1 PUSH0 SUB PUSH2 0x1212 JUMPI PUSH1 0x40 MLOAD PUSH4 0x177B02E1 PUSH1 0xE3 SHL DUP2 MSTORE PUSH1 0x4 ADD PUSH1 0x40 MLOAD DUP1 SWAP2 SUB SWAP1 REVERT JUMPDEST PUSH0 SLOAD PUSH1 0x40 MLOAD PUSH4 0x70A08231 PUSH1 0xE0 SHL DUP2 MSTORE ADDRESS PUSH1 0x4 DUP3 ADD MSTORE PUSH1 0x1 PUSH1 0x1 PUSH1 0xA0 SHL SUB SWAP1 SWAP2 AND SWAP1 PUSH4 0x70A08231 SWAP1 PUSH1 0x24 ADD PUSH1 0x20 PUSH1 0x40 MLOAD DUP1 DUP4 SUB DUP2 DUP7 GAS STATICCALL ISZERO DUP1 ISZERO PUSH2 0x1257 JUMPI RETURNDATASIZE PUSH0 PUSH0 RETURNDATACOPY RETURNDATASIZE PUSH0 REVERT JUMPDEST POP POP POP POP PUSH1 0x40 MLOAD RETURNDATASIZE PUSH1 0x1F NOT PUSH1 0x1F DUP3 ADD AND DUP3 ADD DUP1 PUSH1 0x40 MSTORE POP DUP2 ADD SWAP1 PUSH2 0x127B SWAP2 SWAP1 PUSH2 0x328C JUMP JUMPDEST DUP2 GT ISZERO PUSH2 0x129B JUMPI PUSH1 0x40 MLOAD PUSH4 0x1E9ACF17 PUSH1 0xE3 SHL DUP2 MSTORE PUSH1 0x4 ADD PUSH1 0x40 MLOAD DUP1 SWAP2 SUB SWAP1 REVERT JUMPDEST PUSH0 SLOAD PUSH2 0x12B1 SWAP1 PUSH1 0x1 PUSH1 0x1 PUSH1 0xA0 SHL SUB AND CALLER DUP4 PUSH2 0x288B JUMP JUMPDEST PUSH1 0x40 MLOAD DUP2 DUP2 MSTORE CALLER SWAP1 PUSH32 0x50E6D6EC8BE85E23F668A547E6FB3221517FE26B05001F047487A5D4E2F4DFAD SWAP1 PUSH1 0x20 ADD PUSH1 0x40 MLOAD DUP1 SWAP2 SUB SWAP1 LOG2 POP PUSH2 0x12FD PUSH1 0x1 PUSH0 MLOAD PUSH1 0x20 PUSH2 0x3497 PUSH0 CODECOPY PUSH0 MLOAD SWAP1 PUSH0 MSTORE SSTORE JUMP JUMPDEST JUMP JUMPDEST PUSH0 PUSH2 0x1308 PUSH2 0x28EA JUMP JUMPDEST DUP1 SLOAD SWAP1 SWAP2 POP PUSH1 0xFF PUSH1 0x1 PUSH1 0x40 SHL DUP3 DIV AND ISZERO SWAP1 PUSH8 0xFFFFFFFFFFFFFFFF AND PUSH0 DUP2 ISZERO DUP1 ISZERO PUSH2 0x132F JUMPI POP DUP3 JUMPDEST SWAP1 POP PUSH0 DUP3 PUSH8 0xFFFFFFFFFFFFFFFF AND PUSH1 0x1 EQ DUP1 ISZERO PUSH2 0x134B JUMPI POP ADDRESS EXTCODESIZE ISZERO JUMPDEST SWAP1 POP DUP2 ISZERO DUP1 ISZERO PUSH2 0x1359 JUMPI POP DUP1 ISZERO JUMPDEST ISZERO PUSH2 0x1377 JUMPI PUSH1 0x40 MLOAD PUSH4 0xF92EE8A9 PUSH1 0xE0 SHL DUP2 MSTORE PUSH1 0x4 ADD PUSH1 0x40 MLOAD DUP1 SWAP2 SUB SWAP1 REVERT JUMPDEST DUP5 SLOAD PUSH8 0xFFFFFFFFFFFFFFFF NOT AND PUSH1 0x1 OR DUP6 SSTORE DUP4 ISZERO PUSH2 0x13A1 JUMPI DUP5 SLOAD PUSH1 0xFF PUSH1 0x40 SHL NOT AND PUSH1 0x1 PUSH1 0x40 SHL OR DUP6 SSTORE JUMPDEST PUSH1 0x1 PUSH1 0x1 PUSH1 0xA0 SHL SUB DUP10 AND PUSH2 0x13F7 JUMPI PUSH1 0x40 MLOAD PUSH3 0x461BCD PUSH1 0xE5 SHL DUP2 MSTORE PUSH1 0x20 PUSH1 0x4 DUP3 ADD MSTORE PUSH1 0x1C PUSH1 0x24 DUP3 ADD MSTORE PUSH32 0x4F776E65722063616E6E6F74206265207A65726F206164647265737300000000 PUSH1 0x44 DUP3 ADD MSTORE PUSH1 0x64 ADD PUSH2 0x40F JUMP JUMPDEST PUSH0 DUP9 GT PUSH2 0x1454 JUMPI PUSH1 0x40 MLOAD PUSH3 0x461BCD PUSH1 0xE5 SHL DUP2 MSTORE PUSH1 0x20 PUSH1 0x4 DUP3 ADD MSTORE PUSH1 0x25 PUSH1 0x24 DUP3 ADD MSTORE PUSH32 0x546F6B656E207072696365206D7573742062652067726561746572207468616E PUSH1 0x44 DUP3 ADD MSTORE PUSH5 0x207A65726F PUSH1 0xD8 SHL PUSH1 0x64 DUP3 ADD MSTORE PUSH1 0x84 ADD PUSH2 0x40F JUMP JUMPDEST PUSH1 0x1 PUSH1 0x1 PUSH1 0xA0 SHL SUB DUP8 AND PUSH2 0x14AA JUMPI PUSH1 0x40 MLOAD PUSH3 0x461BCD PUSH1 0xE5 SHL DUP2 MSTORE PUSH1 0x20 PUSH1 0x4 DUP3 ADD MSTORE PUSH1 0x1B PUSH1 0x24 DUP3 ADD MSTORE PUSH32 0x5A4B544320616464726573732063616E6E6F74206265207A65726F0000000000 PUSH1 0x44 DUP3 ADD MSTORE PUSH1 0x64 ADD PUSH2 0x40F JUMP JUMPDEST PUSH1 0x1 PUSH1 0x1 PUSH1 0xA0 SHL SUB DUP7 AND PUSH2 0x1500 JUMPI PUSH1 0x40 MLOAD PUSH3 0x461BCD PUSH1 0xE5 SHL DUP2 MSTORE PUSH1 0x20 PUSH1 0x4 DUP3 ADD MSTORE PUSH1 0x1A PUSH1 0x24 DUP3 ADD MSTORE PUSH32 0x5A435720616464726573732063616E6E6F74206265207A65726F000000000000 PUSH1 0x44 DUP3 ADD MSTORE PUSH1 0x64 ADD PUSH2 0x40F JUMP JUMPDEST PUSH2 0x1509 DUP10 PUSH2 0x2912 JUMP JUMPDEST PUSH2 0x1511 PUSH2 0x2923 JUMP JUMPDEST PUSH2 0x1519 PUSH2 0x292B JUMP JUMPDEST PUSH2 0x1521 PUSH2 0x2923 JUMP JUMPDEST PUSH1 0x1 DUP9 SWAP1 SSTORE PUSH0 DUP1 SLOAD PUSH1 0x1 PUSH1 0x1 PUSH1 0xA0 SHL SUB DUP1 DUP11 AND PUSH1 0x1 PUSH1 0x1 PUSH1 0xA0 SHL SUB NOT SWAP3 DUP4 AND OR SWAP1 SWAP3 SSTORE PUSH1 0xD DUP1 SLOAD SWAP3 DUP10 AND SWAP3 SWAP1 SWAP2 AND SWAP2 SWAP1 SWAP2 OR SWAP1 SSTORE PUSH2 0x927C PUSH1 0x8 SSTORE PUSH3 0x2191C PUSH1 0x9 SSTORE PUSH2 0x1579 PUSH0 MLOAD PUSH1 0x20 PUSH2 0x34B7 PUSH0 CODECOPY PUSH0 MLOAD SWAP1 PUSH0 MSTORE DUP11 PUSH2 0x278F JUMP JUMPDEST POP PUSH2 0x1591 PUSH0 MLOAD PUSH1 0x20 PUSH2 0x3457 PUSH0 CODECOPY PUSH0 MLOAD SWAP1 PUSH0 MSTORE DUP11 PUSH2 0x278F JUMP JUMPDEST POP PUSH2 0x159F TIMESTAMP PUSH3 0x852780 PUSH2 0x32A3 JUMP JUMPDEST PUSH1 0x3 SSTORE PUSH2 0x15AF TIMESTAMP PUSH3 0xF68880 PUSH2 0x32A3 JUMP JUMPDEST PUSH1 0x4 SSTORE PUSH2 0x15C0 TIMESTAMP PUSH4 0x1C2E100 PUSH2 0x32A3 JUMP JUMPDEST PUSH1 0x5 SSTORE DUP4 ISZERO PUSH2 0x1609 JUMPI DUP5 SLOAD PUSH1 0xFF PUSH1 0x40 SHL NOT AND DUP6 SSTORE PUSH1 0x40 MLOAD PUSH1 0x1 DUP2 MSTORE PUSH32 0xC7F505B2F371AE2175EE4913F4499E1F2633A7B5936321EED1CDAEB6115181D2 SWAP1 PUSH1 0x20 ADD PUSH1 0x40 MLOAD DUP1 SWAP2 SUB SWAP1 LOG1 JUMPDEST POP POP POP POP POP POP POP POP POP JUMP JUMPDEST PUSH1 0x1 PUSH1 0x1 PUSH1 0xA0 SHL SUB DUP2 AND CALLER EQ PUSH2 0x163D JUMPI PUSH1 0x40 MLOAD PUSH4 0x334BD919 PUSH1 0xE1 SHL DUP2 MSTORE PUSH1 0x4 ADD PUSH1 0x40 MLOAD DUP1 SWAP2 SUB SWAP1 REVERT JUMPDEST PUSH2 0x1647 DUP3 DUP3 PUSH2 0x293B JUMP JUMPDEST POP POP POP JUMP JUMPDEST PUSH0 PUSH0 PUSH2 0x1656 PUSH2 0x29B4 JUMP JUMPDEST PUSH8 0xFFFFFFFFFFFFFFFF AND GT SWAP1 POP SWAP1 JUMP JUMPDEST PUSH2 0x166E PUSH2 0x2573 JUMP JUMPDEST CALLER PUSH0 DUP2 DUP2 MSTORE PUSH1 0xE PUSH1 0x20 MSTORE PUSH1 0x40 DUP2 KECCAK256 DUP1 SLOAD SWAP1 SWAP2 SUB PUSH2 0x169E JUMPI PUSH1 0x40 MLOAD PUSH4 0x7DD28AA7 PUSH1 0xE1 SHL DUP2 MSTORE PUSH1 0x4 ADD PUSH1 0x40 MLOAD DUP1 SWAP2 SUB SWAP1 REVERT JUMPDEST PUSH1 0x4 SLOAD PUSH0 SWAP1 TIMESTAMP SWAP1 DUP2 LT PUSH2 0x170A JUMPI PUSH0 DUP4 PUSH1 0x3 ADD SLOAD DUP5 PUSH1 0x1 ADD SLOAD PUSH2 0x16C0 SWAP2 SWAP1 PUSH2 0x32B6 JUMP JUMPDEST SWAP1 POP DUP1 ISZERO PUSH2 0x1708 JUMPI DUP4 PUSH1 0x1 ADD SLOAD DUP5 PUSH1 0x3 ADD SLOAD GT ISZERO PUSH2 0x16F1 JUMPI PUSH1 0x40 MLOAD PUSH4 0x77E5FD51 PUSH1 0xE0 SHL DUP2 MSTORE PUSH1 0x4 ADD PUSH1 0x40 MLOAD DUP1 SWAP2 SUB SWAP1 REVERT JUMPDEST PUSH2 0x16FB DUP2 DUP5 PUSH2 0x32A3 JUMP JUMPDEST PUSH1 0x1 DUP6 ADD SLOAD PUSH1 0x3 DUP7 ADD SSTORE SWAP3 POP JUMPDEST POP JUMPDEST PUSH1 0x5 SLOAD DUP2 LT PUSH2 0x1772 JUMPI PUSH0 DUP4 PUSH1 0x4 ADD SLOAD DUP5 PUSH1 0x2 ADD SLOAD PUSH2 0x1728 SWAP2 SWAP1 PUSH2 0x32B6 JUMP JUMPDEST SWAP1 POP DUP1 ISZERO PUSH2 0x1770 JUMPI DUP4 PUSH1 0x2 ADD SLOAD DUP5 PUSH1 0x4 ADD SLOAD GT ISZERO PUSH2 0x1759 JUMPI PUSH1 0x40 MLOAD PUSH4 0x77E5FD51 PUSH1 0xE0 SHL DUP2 MSTORE PUSH1 0x4 ADD PUSH1 0x40 MLOAD DUP1 SWAP2 SUB SWAP1 REVERT JUMPDEST PUSH2 0x1763 DUP2 DUP5 PUSH2 0x32A3 JUMP JUMPDEST PUSH1 0x2 DUP6 ADD SLOAD PUSH1 0x4 DUP7 ADD SSTORE SWAP3 POP JUMPDEST POP JUMPDEST DUP2 PUSH0 SUB PUSH2 0x17BF JUMPI PUSH1 0x4 SLOAD DUP2 LT ISZERO PUSH2 0x179C JUMPI PUSH1 0x40 MLOAD PUSH4 0x15CBFA3F PUSH1 0xE3 SHL DUP2 MSTORE PUSH1 0x4 ADD PUSH1 0x40 MLOAD DUP1 SWAP2 SUB SWAP1 REVERT JUMPDEST PUSH1 0x5 SLOAD DUP2 LT ISZERO PUSH2 0x17BF JUMPI PUSH1 0x40 MLOAD PUSH4 0x69F7C85 PUSH1 0xE4 SHL DUP2 MSTORE PUSH1 0x4 ADD PUSH1 0x40 MLOAD DUP1 SWAP2 SUB SWAP1 REVERT JUMPDEST PUSH0 SLOAD PUSH1 0x40 MLOAD PUSH4 0x70A08231 PUSH1 0xE0 SHL DUP2 MSTORE ADDRESS PUSH1 0x4 DUP3 ADD MSTORE PUSH1 0x1 PUSH1 0x1 PUSH1 0xA0 SHL SUB SWAP1 SWAP2 AND SWAP1 PUSH4 0x70A08231 SWAP1 PUSH1 0x24 ADD PUSH1 0x20 PUSH1 0x40 MLOAD DUP1 DUP4 SUB DUP2 DUP7 GAS STATICCALL ISZERO DUP1 ISZERO PUSH2 0x1804 JUMPI RETURNDATASIZE PUSH0 PUSH0 RETURNDATACOPY RETURNDATASIZE PUSH0 REVERT JUMPDEST POP POP POP POP PUSH1 0x40 MLOAD RETURNDATASIZE PUSH1 0x1F NOT PUSH1 0x1F DUP3 ADD AND DUP3 ADD DUP1 PUSH1 0x40 MSTORE POP DUP2 ADD SWAP1 PUSH2 0x1828 SWAP2 SWAP1 PUSH2 0x328C JUMP JUMPDEST DUP3 GT ISZERO PUSH2 0x1848 JUMPI PUSH1 0x40 MLOAD PUSH4 0x1E9ACF17 PUSH1 0xE3 SHL DUP2 MSTORE PUSH1 0x4 ADD PUSH1 0x40 MLOAD DUP1 SWAP2 SUB SWAP1 REVERT JUMPDEST PUSH0 SLOAD PUSH2 0x185E SWAP1 PUSH1 0x1 PUSH1 0x1 PUSH1 0xA0 SHL SUB AND DUP6 DUP5 PUSH2 0x288B JUMP JUMPDEST DUP4 PUSH1 0x1 PUSH1 0x1 PUSH1 0xA0 SHL SUB AND PUSH32 0xFFE903C0ABE6B2DBB2F3474EF43D7A3C1FCA49E5A774453423CA8E1952AABFFA DUP4 PUSH1 0x5 SLOAD DUP7 PUSH1 0x5 ADD SLOAD PUSH2 0x189C SWAP2 SWAP1 PUSH2 0x32A3 JUMP JUMPDEST DUP5 LT ISZERO PUSH2 0x18AA JUMPI PUSH1 0x1 PUSH2 0x18AD JUMP JUMPDEST PUSH1 0x2 JUMPDEST PUSH1 0x40 DUP1 MLOAD SWAP3 DUP4 MSTORE PUSH1 0xFF SWAP1 SWAP2 AND PUSH1 0x20 DUP4 ADD MSTORE ADD PUSH1 0x40 MLOAD DUP1 SWAP2 SUB SWAP1 LOG2 POP POP POP POP PUSH2 0x12FD PUSH1 0x1 PUSH0 MLOAD PUSH1 0x20 PUSH2 0x3497 PUSH0 CODECOPY PUSH0 MLOAD SWAP1 PUSH0 MSTORE SSTORE JUMP JUMPDEST PUSH0 MLOAD PUSH1 0x20 PUSH2 0x3457 PUSH0 CODECOPY PUSH0 MLOAD SWAP1 PUSH0 MSTORE PUSH2 0x18F8 DUP2 PUSH2 0x2569 JUMP JUMPDEST PUSH1 0x1 PUSH1 0x1 PUSH1 0xA0 SHL SUB DUP4 AND PUSH2 0x191F JUMPI PUSH1 0x40 MLOAD PUSH4 0xA5F90A11 PUSH1 0xE0 SHL DUP2 MSTORE PUSH1 0x4 ADD PUSH1 0x40 MLOAD DUP1 SWAP2 SUB SWAP1 REVERT JUMPDEST DUP4 MLOAD PUSH0 SUB PUSH2 0x1940 JUMPI PUSH1 0x40 MLOAD PUSH4 0xA5F90A11 PUSH1 0xE0 SHL DUP2 MSTORE PUSH1 0x4 ADD PUSH1 0x40 MLOAD DUP1 SWAP2 SUB SWAP1 REVERT JUMPDEST DUP2 MLOAD PUSH0 SUB PUSH2 0x1961 JUMPI PUSH1 0x40 MLOAD PUSH4 0xA5F90A11 PUSH1 0xE0 SHL DUP2 MSTORE PUSH1 0x4 ADD PUSH1 0x40 MLOAD DUP1 SWAP2 SUB SWAP1 REVERT JUMPDEST PUSH1 0xA PUSH2 0x196D DUP6 DUP3 PUSH2 0x3345 JUMP JUMPDEST POP PUSH1 0xB DUP1 SLOAD PUSH1 0x1 PUSH1 0x1 PUSH1 0xA0 SHL SUB NOT AND PUSH1 0x1 PUSH1 0x1 PUSH1 0xA0 SHL SUB DUP6 AND OR SWAP1 SSTORE PUSH1 0xC PUSH2 0x1995 DUP4 DUP3 PUSH2 0x3345 JUMP JUMPDEST POP POP POP POP POP JUMP JUMPDEST PUSH2 0x19A4 PUSH2 0x2830 JUMP JUMPDEST PUSH1 0x1 PUSH1 0x1 PUSH1 0xA0 SHL SUB DUP2 AND PUSH2 0x19CB JUMPI PUSH1 0x40 MLOAD PUSH4 0xE6C4247B PUSH1 0xE0 SHL DUP2 MSTORE PUSH1 0x4 ADD PUSH1 0x40 MLOAD DUP1 SWAP2 SUB SWAP1 REVERT JUMPDEST PUSH2 0x19E2 PUSH0 MLOAD PUSH1 0x20 PUSH2 0x3457 PUSH0 CODECOPY PUSH0 MLOAD SWAP1 PUSH0 MSTORE DUP3 PUSH2 0x278F JUMP JUMPDEST POP POP JUMP JUMPDEST PUSH2 0x19EE PUSH2 0x2830 JUMP JUMPDEST PUSH1 0x3 DUP2 SWAP1 SSTORE PUSH1 0x40 DUP1 MLOAD DUP3 DUP2 MSTORE PUSH1 0x20 DUP2 ADD DUP4 SWAP1 MSTORE PUSH32 0x580A9B185D29EE00D94379A7320CEE44AFB0849443FFA9917C0109FCA626EA25 SWAP2 ADD JUMPDEST PUSH1 0x40 MLOAD DUP1 SWAP2 SUB SWAP1 LOG1 POP JUMP JUMPDEST PUSH2 0x1A38 PUSH2 0x29CD JUMP JUMPDEST PUSH2 0x1A41 DUP3 PUSH2 0x2A71 JUMP JUMPDEST PUSH2 0x19E2 DUP3 DUP3 PUSH2 0x2AC0 JUMP JUMPDEST PUSH0 PUSH2 0x1A54 PUSH2 0x2B7C JUMP JUMPDEST POP PUSH0 MLOAD PUSH1 0x20 PUSH2 0x3417 PUSH0 CODECOPY PUSH0 MLOAD SWAP1 PUSH0 MSTORE SWAP1 JUMP JUMPDEST PUSH0 MLOAD PUSH1 0x20 PUSH2 0x34B7 PUSH0 CODECOPY PUSH0 MLOAD SWAP1 PUSH0 MSTORE PUSH2 0x1A7D DUP2 PUSH2 0x2569 JUMP JUMPDEST DUP2 PUSH0 SUB PUSH2 0x1A9D JUMPI PUSH1 0x40 MLOAD PUSH4 0xAE4D9CEF PUSH1 0xE0 SHL DUP2 MSTORE PUSH1 0x4 ADD PUSH1 0x40 MLOAD DUP1 SWAP2 SUB SWAP1 REVERT JUMPDEST PUSH1 0x1 DUP1 SLOAD SWAP1 DUP4 SWAP1 SSTORE PUSH1 0x40 DUP1 MLOAD DUP3 DUP2 MSTORE PUSH1 0x20 DUP2 ADD DUP6 SWAP1 MSTORE PUSH32 0xD9CC159FA79112D02593601DB522A6696E6C5C82D9E9CA9332F89EC824935BB0 SWAP2 ADD JUMPDEST PUSH1 0x40 MLOAD DUP1 SWAP2 SUB SWAP1 LOG1 POP POP POP JUMP JUMPDEST PUSH2 0x1AEC PUSH2 0x2830 JUMP JUMPDEST PUSH2 0x12FD PUSH0 PUSH2 0x2BC5 JUMP JUMPDEST PUSH0 MLOAD PUSH1 0x20 PUSH2 0x34B7 PUSH0 CODECOPY PUSH0 MLOAD SWAP1 PUSH0 MSTORE PUSH2 0x1B0C DUP2 PUSH2 0x2569 JUMP JUMPDEST PUSH1 0x1 PUSH1 0x1 PUSH1 0xA0 SHL SUB DUP4 AND PUSH0 SWAP1 DUP2 MSTORE PUSH1 0xE PUSH1 0x20 MSTORE PUSH1 0x40 DUP2 KECCAK256 SSTORE PUSH2 0x1647 DUP4 PUSH2 0x1B3A DUP5 PUSH8 0xDE0B6B3A7640000 PUSH2 0x3256 JUMP JUMPDEST PUSH2 0x25AA JUMP JUMPDEST PUSH0 DUP1 DUP4 ISZERO DUP1 ISZERO PUSH2 0x1B4D JUMPI POP DUP3 ISZERO JUMPDEST ISZERO PUSH2 0x1B5C JUMPI POP PUSH0 SWAP1 POP DUP1 PUSH2 0x1C7C JUMP JUMPDEST PUSH1 0x1 SLOAD PUSH0 SUB PUSH2 0x1B7E JUMPI PUSH1 0x40 MLOAD PUSH4 0x7841C2C9 PUSH1 0xE1 SHL DUP2 MSTORE PUSH1 0x4 ADD PUSH1 0x40 MLOAD DUP1 SWAP2 SUB SWAP1 REVERT JUMPDEST PUSH1 0x1 SLOAD PUSH2 0x1B93 DUP6 PUSH8 0xDE0B6B3A7640000 PUSH2 0x3256 JUMP JUMPDEST PUSH2 0x1B9D SWAP2 SWAP1 PUSH2 0x326D JUMP JUMPDEST PUSH1 0x1 SLOAD SWAP1 SWAP3 POP PUSH2 0x1BB5 DUP5 PUSH8 0xDE0B6B3A7640000 PUSH2 0x3256 JUMP JUMPDEST PUSH2 0x1BBF SWAP2 SWAP1 PUSH2 0x326D JUMP JUMPDEST SWAP1 POP DUP4 PUSH0 SUB PUSH2 0x1BD0 JUMPI PUSH0 SWAP2 POP PUSH2 0x1C7C JUMP JUMPDEST PUSH1 0x6 SLOAD PUSH0 DUP1 SLOAD PUSH1 0x40 MLOAD PUSH4 0x70A08231 PUSH1 0xE0 SHL DUP2 MSTORE ADDRESS PUSH1 0x4 DUP3 ADD MSTORE SWAP2 SWAP3 SWAP2 PUSH1 0x1 PUSH1 0x1 PUSH1 0xA0 SHL SUB SWAP1 SWAP2 AND SWAP1 PUSH4 0x70A08231 SWAP1 PUSH1 0x24 ADD PUSH1 0x20 PUSH1 0x40 MLOAD DUP1 DUP4 SUB DUP2 DUP7 GAS STATICCALL ISZERO DUP1 ISZERO PUSH2 0x1C1C JUMPI RETURNDATASIZE PUSH0 PUSH0 RETURNDATACOPY RETURNDATASIZE PUSH0 REVERT JUMPDEST POP POP POP POP PUSH1 0x40 MLOAD RETURNDATASIZE PUSH1 0x1F NOT PUSH1 0x1F DUP3 ADD AND DUP3 ADD DUP1 PUSH1 0x40 MSTORE POP DUP2 ADD SWAP1 PUSH2 0x1C40 SWAP2 SWAP1 PUSH2 0x328C JUMP JUMPDEST PUSH2 0x1C4A SWAP2 SWAP1 PUSH2 0x32B6 JUMP JUMPDEST SWAP1 POP DUP1 PUSH0 SUB PUSH2 0x1C5C JUMPI PUSH0 SWAP3 POP POP PUSH2 0x1C7C JUMP JUMPDEST DUP1 PUSH2 0x1C67 DUP4 DUP6 PUSH2 0x32A3 JUMP JUMPDEST GT ISZERO PUSH2 0x1C7A JUMPI PUSH2 0x1C77 DUP3 DUP3 PUSH2 0x32B6 JUMP JUMPDEST SWAP3 POP JUMPDEST POP JUMPDEST SWAP3 POP SWAP3 SWAP1 POP JUMP JUMPDEST PUSH0 MLOAD PUSH1 0x20 PUSH2 0x34B7 PUSH0 CODECOPY PUSH0 MLOAD SWAP1 PUSH0 MSTORE PUSH2 0x1C9A DUP2 PUSH2 0x2569 JUMP JUMPDEST PUSH2 0x1CA2 PUSH2 0x2573 JUMP JUMPDEST PUSH1 0x6 SLOAD PUSH0 SUB PUSH2 0x1CC3 JUMPI PUSH1 0x40 MLOAD PUSH3 0x859685 PUSH1 0xE7 SHL DUP2 MSTORE PUSH1 0x4 ADD PUSH1 0x40 MLOAD DUP1 SWAP2 SUB SWAP1 REVERT JUMPDEST PUSH1 0xD SLOAD PUSH1 0x6 SLOAD PUSH0 SLOAD PUSH2 0x1CE3 SWAP3 PUSH1 0x1 PUSH1 0x1 PUSH1 0xA0 SHL SUB SWAP2 DUP3 AND SWAP3 SWAP2 AND SWAP1 PUSH2 0x288B JUMP JUMPDEST PUSH0 PUSH1 0x6 DUP2 SWAP1 SSTORE PUSH1 0x40 DUP1 MLOAD SWAP2 DUP3 MSTORE TIMESTAMP PUSH1 0x20 DUP4 ADD MSTORE PUSH32 0x221D91219C547C6A34F83C55B3BDCF0512A134E07ED11D99159FB71057BD0134 SWAP2 ADD PUSH1 0x40 MLOAD DUP1 SWAP2 SUB SWAP1 LOG1 PUSH2 0x1D37 PUSH1 0x1 PUSH0 MLOAD PUSH1 0x20 PUSH2 0x3497 PUSH0 CODECOPY PUSH0 MLOAD SWAP1 PUSH0 MSTORE SSTORE JUMP JUMPDEST POP JUMP JUMPDEST PUSH0 DUP1 PUSH1 0x1 PUSH1 0x1 PUSH1 0xA0 SHL SUB DUP4 AND PUSH2 0x1D63 JUMPI PUSH1 0x40 MLOAD PUSH4 0xE6C4247B PUSH1 0xE0 SHL DUP2 MSTORE PUSH1 0x4 ADD PUSH1 0x40 MLOAD DUP1 SWAP2 SUB SWAP1 REVERT JUMPDEST PUSH1 0x1 PUSH1 0x1 PUSH1 0xA0 SHL SUB DUP4 AND PUSH0 SWAP1 DUP2 MSTORE PUSH1 0xE PUSH1 0x20 SWAP1 DUP2 MSTORE PUSH1 0x40 DUP1 DUP4 KECCAK256 DUP2 MLOAD PUSH1 0xC0 DUP2 ADD DUP4 MSTORE DUP2 SLOAD DUP1 DUP3 MSTORE PUSH1 0x1 DUP4 ADD SLOAD SWAP5 DUP3 ADD SWAP5 SWAP1 SWAP5 MSTORE PUSH1 0x2 DUP3 ADD SLOAD SWAP3 DUP2 ADD SWAP3 SWAP1 SWAP3 MSTORE PUSH1 0x3 DUP2 ADD SLOAD PUSH1 0x60 DUP4 ADD MSTORE PUSH1 0x4 DUP2 ADD SLOAD PUSH1 0x80 DUP4 ADD MSTORE PUSH1 0x5 ADD SLOAD PUSH1 0xA0 DUP3 ADD MSTORE SWAP2 SUB PUSH2 0x1DD0 JUMPI POP PUSH0 SWAP4 DUP5 SWAP4 POP SWAP2 POP POP JUMP JUMPDEST PUSH1 0x4 SLOAD PUSH1 0xA0 DUP3 ADD MLOAD TIMESTAMP SWAP2 PUSH0 SWAP2 PUSH2 0x1DE6 SWAP2 SWAP1 PUSH2 0x32A3 JUMP JUMPDEST SWAP1 POP PUSH0 PUSH1 0x5 SLOAD DUP5 PUSH1 0xA0 ADD MLOAD PUSH2 0x1DFB SWAP2 SWAP1 PUSH2 0x32A3 JUMP JUMPDEST SWAP1 POP DUP2 DUP4 GT ISZERO PUSH2 0x1E0D JUMPI PUSH0 SWAP6 POP PUSH2 0x1E1A JUMP JUMPDEST PUSH2 0x1E17 DUP4 DUP4 PUSH2 0x32B6 JUMP JUMPDEST SWAP6 POP JUMPDEST DUP1 DUP4 GT ISZERO PUSH2 0x1E2A JUMPI PUSH0 SWAP5 POP PUSH2 0x1E37 JUMP JUMPDEST PUSH2 0x1E34 DUP4 DUP3 PUSH2 0x32B6 JUMP JUMPDEST SWAP5 POP JUMPDEST POP POP POP POP SWAP2 POP SWAP2 JUMP JUMPDEST PUSH0 SWAP2 DUP3 MSTORE PUSH0 MLOAD PUSH1 0x20 PUSH2 0x3477 PUSH0 CODECOPY PUSH0 MLOAD SWAP1 PUSH0 MSTORE PUSH1 0x20 SWAP1 DUP2 MSTORE PUSH1 0x40 DUP1 DUP5 KECCAK256 PUSH1 0x1 PUSH1 0x1 PUSH1 0xA0 SHL SUB SWAP4 SWAP1 SWAP4 AND DUP5 MSTORE SWAP2 SWAP1 MSTORE SWAP1 KECCAK256 SLOAD PUSH1 0xFF AND SWAP1 JUMP JUMPDEST PUSH2 0x1E7E PUSH2 0x2830 JUMP JUMPDEST DUP1 PUSH0 SUB PUSH2 0x1E9E JUMPI PUSH1 0x40 MLOAD PUSH4 0x5E85AE73 PUSH1 0xE0 SHL DUP2 MSTORE PUSH1 0x4 ADD PUSH1 0x40 MLOAD DUP1 SWAP2 SUB SWAP1 REVERT JUMPDEST PUSH0 SLOAD PUSH2 0x1EB5 SWAP1 PUSH1 0x1 PUSH1 0x1 PUSH1 0xA0 SHL SUB AND CALLER ADDRESS DUP5 PUSH2 0x2C35 JUMP JUMPDEST PUSH0 SLOAD PUSH1 0x40 MLOAD PUSH4 0x70A08231 PUSH1 0xE0 SHL DUP2 MSTORE ADDRESS PUSH1 0x4 DUP3 ADD MSTORE PUSH32 0xB5E9AE65A2569CFE9E69E81D01D7EA874EEF55CF57E6FDAA67A8E221DF5DBA8 SWAP2 DUP4 SWAP2 PUSH1 0x1 PUSH1 0x1 PUSH1 0xA0 SHL SUB SWAP1 SWAP2 AND SWAP1 PUSH4 0x70A08231 SWAP1 PUSH1 0x24 ADD PUSH1 0x20 PUSH1 0x40 MLOAD DUP1 DUP4 SUB DUP2 DUP7 GAS STATICCALL ISZERO DUP1 ISZERO PUSH2 0x1F1E JUMPI RETURNDATASIZE PUSH0 PUSH0 RETURNDATACOPY RETURNDATASIZE PUSH0 REVERT JUMPDEST POP POP POP POP PUSH1 0x40 MLOAD RETURNDATASIZE PUSH1 0x1F NOT PUSH1 0x1F DUP3 ADD AND DUP3 ADD DUP1 PUSH1 0x40 MSTORE POP DUP2 ADD SWAP1 PUSH2 0x1F42 SWAP2 SWAP1 PUSH2 0x328C JUMP JUMPDEST PUSH1 0x40 DUP1 MLOAD SWAP3 DUP4 MSTORE PUSH1 0x20 DUP4 ADD SWAP2 SWAP1 SWAP2 MSTORE ADD PUSH2 0x1A25 JUMP JUMPDEST PUSH0 MLOAD PUSH1 0x20 PUSH2 0x34B7 PUSH0 CODECOPY PUSH0 MLOAD SWAP1 PUSH0 MSTORE PUSH2 0x1F6E DUP2 PUSH2 0x2569 JUMP JUMPDEST PUSH1 0x4 DUP4 SWAP1 SSTORE PUSH1 0x5 DUP3 SWAP1 SSTORE PUSH1 0x40 DUP1 MLOAD DUP5 DUP2 MSTORE PUSH1 0x20 DUP2 ADD DUP5 SWAP1 MSTORE PUSH32 0x55B02D62EF7E420835C67AE781C1BF1CD2572975B6F81DB134A1F3062BD143CC SWAP2 ADD PUSH2 0x1AD7 JUMP JUMPDEST PUSH2 0x1FB6 PUSH2 0x2830 JUMP JUMPDEST PUSH2 0x1FCD PUSH0 MLOAD PUSH1 0x20 PUSH2 0x34B7 PUSH0 CODECOPY PUSH0 MLOAD SWAP1 PUSH0 MSTORE DUP3 PUSH2 0x293B JUMP JUMPDEST POP PUSH1 0x40 MLOAD PUSH1 0x1 PUSH1 0x1 PUSH1 0xA0 SHL SUB DUP3 AND SWAP1 PUSH32 0x32B0B795858B77348E5D930C9BA3A8D51FCC0993A2E7D185EC976B672A69294B SWAP1 PUSH0 SWAP1 LOG2 POP JUMP JUMPDEST PUSH0 PUSH0 PUSH2 0x200F PUSH1 0x2 SLOAD SWAP1 JUMP JUMPDEST PUSH1 0x6 SLOAD PUSH0 SLOAD PUSH1 0x40 MLOAD PUSH4 0x70A08231 PUSH1 0xE0 SHL DUP2 MSTORE ADDRESS PUSH1 0x4 DUP3 ADD MSTORE SWAP3 SWAP4 POP DUP4 SWAP3 PUSH1 0x1 PUSH1 0x1 PUSH1 0xA0 SHL SUB SWAP1 SWAP2 AND SWAP1 PUSH4 0x70A08231 SWAP1 PUSH1 0x24 ADD PUSH1 0x20 PUSH1 0x40 MLOAD DUP1 DUP4 SUB DUP2 DUP7 GAS STATICCALL ISZERO DUP1 ISZERO PUSH2 0x205C JUMPI RETURNDATASIZE PUSH0 PUSH0 RETURNDATACOPY RETURNDATASIZE PUSH0 REVERT JUMPDEST POP POP POP POP PUSH1 0x40 MLOAD RETURNDATASIZE PUSH1 0x1F NOT PUSH1 0x1F DUP3 ADD AND DUP3 ADD DUP1 PUSH1 0x40 MSTORE POP DUP2 ADD SWAP1 PUSH2 0x2080 SWAP2 SWAP1 PUSH2 0x328C JUMP JUMPDEST PUSH2 0x208A SWAP2 SWAP1 PUSH2 0x32B6 JUMP JUMPDEST PUSH2 0x2094 SWAP2 SWAP1 PUSH2 0x32B6 JUMP JUMPDEST SWAP2 POP POP SWAP1 JUMP JUMPDEST PUSH0 PUSH2 0x20A3 PUSH2 0x2004 JUMP JUMPDEST SWAP1 POP SWAP1 JUMP JUMPDEST PUSH2 0x20B0 PUSH2 0x2830 JUMP JUMPDEST PUSH2 0x20C7 PUSH0 MLOAD PUSH1 0x20 PUSH2 0x34B7 PUSH0 CODECOPY PUSH0 MLOAD SWAP1 PUSH0 MSTORE DUP3 PUSH2 0x278F JUMP JUMPDEST POP PUSH1 0x40 MLOAD PUSH1 0x1 PUSH1 0x1 PUSH1 0xA0 SHL SUB DUP3 AND SWAP1 PUSH32 0x4A0DCC22ED621BB3659EA4F8E3C7D48B6245290B813B11F6965A978790B81B20 SWAP1 PUSH0 SWAP1 LOG2 POP JUMP JUMPDEST PUSH2 0x2107 DUP3 PUSH2 0x115B JUMP JUMPDEST PUSH2 0x2110 DUP2 PUSH2 0x2569 JUMP JUMPDEST PUSH2 0x108C DUP4 DUP4 PUSH2 0x293B JUMP JUMPDEST PUSH2 0x2122 PUSH2 0x2830 JUMP JUMPDEST PUSH1 0x1 PUSH1 0x1 PUSH1 0xA0 SHL SUB DUP2 AND PUSH2 0x2149 JUMPI PUSH1 0x40 MLOAD PUSH4 0xE6C4247B PUSH1 0xE0 SHL DUP2 MSTORE PUSH1 0x4 ADD PUSH1 0x40 MLOAD DUP1 SWAP2 SUB SWAP1 REVERT JUMPDEST PUSH1 0xD DUP1 SLOAD PUSH1 0x1 PUSH1 0x1 PUSH1 0xA0 SHL SUB NOT AND PUSH1 0x1 PUSH1 0x1 PUSH1 0xA0 SHL SUB SWAP3 SWAP1 SWAP3 AND SWAP2 SWAP1 SWAP2 OR SWAP1 SSTORE JUMP JUMPDEST PUSH0 MLOAD PUSH1 0x20 PUSH2 0x34B7 PUSH0 CODECOPY PUSH0 MLOAD SWAP1 PUSH0 MSTORE PUSH2 0x2182 DUP2 PUSH2 0x2569 JUMP JUMPDEST POP PUSH1 0x9 SSTORE JUMP JUMPDEST PUSH0 DUP1 DUP1 DUP1 DUP1 DUP1 PUSH1 0x1 PUSH1 0x1 PUSH1 0xA0 SHL SUB DUP8 AND PUSH2 0x21B5 JUMPI PUSH1 0x40 MLOAD PUSH4 0xE6C4247B PUSH1 0xE0 SHL DUP2 MSTORE PUSH1 0x4 ADD PUSH1 0x40 MLOAD DUP1 SWAP2 SUB SWAP1 REVERT JUMPDEST POP POP POP POP PUSH1 0x1 PUSH1 0x1 PUSH1 0xA0 SHL SUB SWAP3 SWAP1 SWAP3 AND PUSH0 SWAP1 DUP2 MSTORE PUSH1 0xE PUSH1 0x20 SWAP1 DUP2 MSTORE PUSH1 0x40 SWAP2 DUP3 SWAP1 KECCAK256 DUP3 MLOAD PUSH1 0xC0 DUP2 ADD DUP5 MSTORE DUP2 SLOAD DUP1 DUP3 MSTORE PUSH1 0x1 DUP4 ADD SLOAD SWAP4 DUP3 ADD DUP5 SWAP1 MSTORE PUSH1 0x2 DUP4 ADD SLOAD SWAP5 DUP3 ADD DUP6 SWAP1 MSTORE PUSH1 0x3 DUP4 ADD SLOAD PUSH1 0x60 DUP4 ADD DUP2 SWAP1 MSTORE PUSH1 0x4 DUP5 ADD SLOAD PUSH1 0x80 DUP5 ADD DUP2 SWAP1 MSTORE PUSH1 0x5 SWAP1 SWAP5 ADD SLOAD PUSH1 0xA0 SWAP1 SWAP4 ADD DUP4 SWAP1 MSTORE SWAP1 SWAP8 SWAP4 SWAP7 POP SWAP4 SWAP5 POP SWAP1 SWAP2 JUMP JUMPDEST PUSH2 0x2233 PUSH2 0x2830 JUMP JUMPDEST PUSH1 0x1 PUSH1 0x1 PUSH1 0xA0 SHL SUB DUP2 AND PUSH2 0x225C JUMPI PUSH1 0x40 MLOAD PUSH4 0x1E4FBDF7 PUSH1 0xE0 SHL DUP2 MSTORE PUSH0 PUSH1 0x4 DUP3 ADD MSTORE PUSH1 0x24 ADD PUSH2 0x40F JUMP JUMPDEST PUSH2 0x1D37 DUP2 PUSH2 0x2BC5 JUMP JUMPDEST PUSH2 0x226D PUSH2 0x2830 JUMP JUMPDEST PUSH2 0x2275 PUSH2 0x2573 JUMP JUMPDEST PUSH1 0x3 SLOAD TIMESTAMP LT ISZERO PUSH2 0x2298 JUMPI PUSH1 0x40 MLOAD PUSH4 0x5B00E23 PUSH1 0xE0 SHL DUP2 MSTORE PUSH1 0x4 ADD PUSH1 0x40 MLOAD DUP1 SWAP2 SUB SWAP1 REVERT JUMPDEST DUP1 PUSH0 SUB PUSH2 0x22B8 JUMPI PUSH1 0x40 MLOAD PUSH4 0x5E85AE73 PUSH1 0xE0 SHL DUP2 MSTORE PUSH1 0x4 ADD PUSH1 0x40 MLOAD DUP1 SWAP2 SUB SWAP1 REVERT JUMPDEST PUSH2 0x22C4 PUSH1 0x2 PUSH0 NOT PUSH2 0x326D JUMP JUMPDEST DUP2 GT ISZERO PUSH2 0x22E4 JUMPI PUSH1 0x40 MLOAD PUSH4 0x162908E3 PUSH1 0xE1 SHL DUP2 MSTORE PUSH1 0x4 ADD PUSH1 0x40 MLOAD DUP1 SWAP2 SUB SWAP1 REVERT JUMPDEST PUSH0 PUSH2 0x22ED PUSH2 0x2004 JUMP JUMPDEST SWAP1 POP DUP1 DUP3 GT ISZERO PUSH2 0x2310 JUMPI PUSH1 0x40 MLOAD PUSH4 0x1E9ACF17 PUSH1 0xE3 SHL DUP2 MSTORE PUSH1 0x4 ADD PUSH1 0x40 MLOAD DUP1 SWAP2 SUB SWAP1 REVERT JUMPDEST PUSH0 SLOAD PUSH1 0x40 MLOAD PUSH4 0x70A08231 PUSH1 0xE0 SHL DUP2 MSTORE ADDRESS PUSH1 0x4 DUP3 ADD MSTORE PUSH1 0x1 PUSH1 0x1 PUSH1 0xA0 SHL SUB SWAP1 SWAP2 AND SWAP1 PUSH4 0x70A08231 SWAP1 PUSH1 0x24 ADD PUSH1 0x20 PUSH1 0x40 MLOAD DUP1 DUP4 SUB DUP2 DUP7 GAS STATICCALL ISZERO DUP1 ISZERO PUSH2 0x2355 JUMPI RETURNDATASIZE PUSH0 PUSH0 RETURNDATACOPY RETURNDATASIZE PUSH0 REVERT JUMPDEST POP POP POP POP PUSH1 0x40 MLOAD RETURNDATASIZE PUSH1 0x1F NOT PUSH1 0x1F DUP3 ADD AND DUP3 ADD DUP1 PUSH1 0x40 MSTORE POP DUP2 ADD SWAP1 PUSH2 0x2379 SWAP2 SWAP1 PUSH2 0x328C JUMP JUMPDEST DUP3 GT ISZERO PUSH2 0x2399 JUMPI PUSH1 0x40 MLOAD PUSH4 0x1E9ACF17 PUSH1 0xE3 SHL DUP2 MSTORE PUSH1 0x4 ADD PUSH1 0x40 MLOAD DUP1 SWAP2 SUB SWAP1 REVERT JUMPDEST PUSH0 SLOAD PUSH2 0x23AF SWAP1 PUSH1 0x1 PUSH1 0x1 PUSH1 0xA0 SHL SUB AND CALLER DUP5 PUSH2 0x288B JUMP JUMPDEST PUSH1 0x40 MLOAD DUP3 DUP2 MSTORE CALLER SWAP1 PUSH32 0x6352C5382C4A4578E712449CA65E83CDB392D045DFCF1CAD9615189DB2DA244B SWAP1 PUSH1 0x20 ADD PUSH1 0x40 MLOAD DUP1 SWAP2 SUB SWAP1 LOG2 POP PUSH2 0x1D37 PUSH1 0x1 PUSH0 MLOAD PUSH1 0x20 PUSH2 0x3497 PUSH0 CODECOPY PUSH0 MLOAD SWAP1 PUSH0 MSTORE SSTORE JUMP JUMPDEST PUSH0 PUSH1 0x1 PUSH1 0x1 PUSH1 0xA0 SHL SUB DUP3 AND PUSH2 0x2423 JUMPI PUSH1 0x40 MLOAD PUSH4 0xE6C4247B PUSH1 0xE0 SHL DUP2 MSTORE PUSH1 0x4 ADD PUSH1 0x40 MLOAD DUP1 SWAP2 SUB SWAP1 REVERT JUMPDEST PUSH1 0x1 PUSH1 0x1 PUSH1 0xA0 SHL SUB DUP3 AND PUSH0 SWAP1 DUP2 MSTORE PUSH1 0xE PUSH1 0x20 SWAP1 DUP2 MSTORE PUSH1 0x40 DUP1 DUP4 KECCAK256 DUP2 MLOAD PUSH1 0xC0 DUP2 ADD DUP4 MSTORE DUP2 SLOAD DUP1 DUP3 MSTORE PUSH1 0x1 DUP4 ADD SLOAD SWAP5 DUP3 ADD SWAP5 SWAP1 SWAP5 MSTORE PUSH1 0x2 DUP3 ADD SLOAD SWAP3 DUP2 ADD SWAP3 SWAP1 SWAP3 MSTORE PUSH1 0x3 DUP2 ADD SLOAD PUSH1 0x60 DUP4 ADD MSTORE PUSH1 0x4 DUP2 ADD SLOAD PUSH1 0x80 DUP4 ADD MSTORE PUSH1 0x5 ADD SLOAD PUSH1 0xA0 DUP3 ADD MSTORE SWAP2 SUB PUSH2 0x248D JUMPI POP PUSH0 SWAP3 SWAP2 POP POP JUMP JUMPDEST PUSH1 0x4 SLOAD PUSH1 0xA0 DUP3 ADD MLOAD PUSH0 SWAP4 POP TIMESTAMP SWAP2 PUSH2 0x24A3 SWAP2 PUSH2 0x32A3 JUMP JUMPDEST DUP2 LT PUSH2 0x24F3 JUMPI DUP2 PUSH1 0x20 ADD MLOAD DUP3 PUSH1 0x60 ADD MLOAD GT ISZERO PUSH2 0x24D2 JUMPI PUSH1 0x40 MLOAD PUSH4 0x77E5FD51 PUSH1 0xE0 SHL DUP2 MSTORE PUSH1 0x4 ADD PUSH1 0x40 MLOAD DUP1 SWAP2 SUB SWAP1 REVERT JUMPDEST DUP2 PUSH1 0x60 ADD MLOAD DUP3 PUSH1 0x20 ADD MLOAD PUSH2 0x24E6 SWAP2 SWAP1 PUSH2 0x32B6 JUMP JUMPDEST PUSH2 0x24F0 SWAP1 DUP5 PUSH2 0x32A3 JUMP JUMPDEST SWAP3 POP JUMPDEST PUSH1 0x5 SLOAD DUP3 PUSH1 0xA0 ADD MLOAD PUSH2 0x2505 SWAP2 SWAP1 PUSH2 0x32A3 JUMP JUMPDEST DUP2 LT PUSH2 0x2555 JUMPI DUP2 PUSH1 0x40 ADD MLOAD DUP3 PUSH1 0x80 ADD MLOAD GT ISZERO PUSH2 0x2534 JUMPI PUSH1 0x40 MLOAD PUSH4 0x77E5FD51 PUSH1 0xE0 SHL DUP2 MSTORE PUSH1 0x4 ADD PUSH1 0x40 MLOAD DUP1 SWAP2 SUB SWAP1 REVERT JUMPDEST DUP2 PUSH1 0x80 ADD MLOAD DUP3 PUSH1 0x40 ADD MLOAD PUSH2 0x2548 SWAP2 SWAP1 PUSH2 0x32B6 JUMP JUMPDEST PUSH2 0x2552 SWAP1 DUP5 PUSH2 0x32A3 JUMP JUMPDEST SWAP3 POP JUMPDEST POP POP SWAP2 SWAP1 POP JUMP JUMPDEST PUSH1 0xA DUP1 SLOAD PUSH2 0x109F SWAP1 PUSH2 0x32C9 JUMP JUMPDEST PUSH2 0x1D37 DUP2 CALLER PUSH2 0x2C6E JUMP JUMPDEST PUSH0 MLOAD PUSH1 0x20 PUSH2 0x3497 PUSH0 CODECOPY PUSH0 MLOAD SWAP1 PUSH0 MSTORE DUP1 SLOAD PUSH1 0x1 NOT ADD PUSH2 0x25A4 JUMPI PUSH1 0x40 MLOAD PUSH4 0x3EE5AEB5 PUSH1 0xE0 SHL DUP2 MSTORE PUSH1 0x4 ADD PUSH1 0x40 MLOAD DUP1 SWAP2 SUB SWAP1 REVERT JUMPDEST PUSH1 0x2 SWAP1 SSTORE JUMP JUMPDEST PUSH1 0x1 PUSH1 0x1 PUSH1 0xA0 SHL SUB DUP3 AND PUSH2 0x25D1 JUMPI PUSH1 0x40 MLOAD PUSH4 0xE6C4247B PUSH1 0xE0 SHL DUP2 MSTORE PUSH1 0x4 ADD PUSH1 0x40 MLOAD DUP1 SWAP2 SUB SWAP1 REVERT JUMPDEST DUP1 PUSH0 SUB PUSH2 0x25F1 JUMPI PUSH1 0x40 MLOAD PUSH4 0x5E85AE73 PUSH1 0xE0 SHL DUP2 MSTORE PUSH1 0x4 ADD PUSH1 0x40 MLOAD DUP1 SWAP2 SUB SWAP1 REVERT JUMPDEST PUSH1 0x1 PUSH1 0x1 PUSH1 0xA0 SHL SUB DUP3 AND PUSH0 SWAP1 DUP2 MSTORE PUSH1 0xE PUSH1 0x20 MSTORE PUSH1 0x40 SWAP1 KECCAK256 DUP1 SLOAD ISZERO PUSH2 0x2705 JUMPI PUSH2 0x261A DUP3 PUSH0 NOT PUSH2 0x32B6 JUMP JUMPDEST DUP2 SLOAD GT ISZERO PUSH2 0x263B JUMPI PUSH1 0x40 MLOAD PUSH4 0x7883AD3D PUSH1 0xE1 SHL DUP2 MSTORE PUSH1 0x4 ADD PUSH1 0x40 MLOAD DUP1 SWAP2 SUB SWAP1 REVERT JUMPDEST DUP2 DUP2 PUSH0 ADD PUSH0 DUP3 DUP3 SLOAD PUSH2 0x264D SWAP2 SWAP1 PUSH2 0x32A3 JUMP JUMPDEST SWAP1 SWAP2 SSTORE POP PUSH0 SWAP1 POP PUSH2 0x265F PUSH1 0x2 DUP5 PUSH2 0x326D JUMP JUMPDEST SWAP1 POP PUSH2 0x266C DUP2 PUSH0 NOT PUSH2 0x32B6 JUMP JUMPDEST DUP3 PUSH1 0x1 ADD SLOAD GT ISZERO PUSH2 0x2690 JUMPI PUSH1 0x40 MLOAD PUSH4 0x7883AD3D PUSH1 0xE1 SHL DUP2 MSTORE PUSH1 0x4 ADD PUSH1 0x40 MLOAD DUP1 SWAP2 SUB SWAP1 REVERT JUMPDEST DUP1 DUP3 PUSH1 0x1 ADD PUSH0 DUP3 DUP3 SLOAD PUSH2 0x26A3 SWAP2 SWAP1 PUSH2 0x32A3 JUMP JUMPDEST SWAP1 SWAP2 SSTORE POP PUSH0 SWAP1 POP PUSH2 0x26B4 DUP3 DUP6 PUSH2 0x32B6 JUMP JUMPDEST SWAP1 POP PUSH2 0x26C1 DUP2 PUSH0 NOT PUSH2 0x32B6 JUMP JUMPDEST DUP4 PUSH1 0x2 ADD SLOAD GT ISZERO PUSH2 0x26E5 JUMPI PUSH1 0x40 MLOAD PUSH4 0x7883AD3D PUSH1 0xE1 SHL DUP2 MSTORE PUSH1 0x4 ADD PUSH1 0x40 MLOAD DUP1 SWAP2 SUB SWAP1 REVERT JUMPDEST DUP1 DUP4 PUSH1 0x2 ADD PUSH0 DUP3 DUP3 SLOAD PUSH2 0x26F8 SWAP2 SWAP1 PUSH2 0x32A3 JUMP JUMPDEST SWAP1 SWAP2 SSTORE POP PUSH2 0x2734 SWAP3 POP POP POP JUMP JUMPDEST DUP2 DUP2 SSTORE PUSH0 PUSH2 0x2714 PUSH1 0x2 DUP5 PUSH2 0x326D JUMP JUMPDEST PUSH1 0x1 DUP4 ADD DUP2 SWAP1 SSTORE SWAP1 POP PUSH2 0x2727 DUP2 DUP5 PUSH2 0x32B6 JUMP JUMPDEST PUSH1 0x2 DUP4 ADD SSTORE POP TIMESTAMP PUSH1 0x5 DUP3 ADD SSTORE JUMPDEST PUSH1 0x40 DUP1 MLOAD DUP4 DUP2 MSTORE TIMESTAMP PUSH1 0x20 DUP3 ADD MSTORE PUSH1 0x1 PUSH1 0x1 PUSH1 0xA0 SHL SUB DUP6 AND SWAP2 PUSH32 0xD741E738A23FD18A03A26522320D9FC6CAC1FED483E215EA9150FBC2FC43385D SWAP2 ADD PUSH1 0x40 MLOAD DUP1 SWAP2 SUB SWAP1 LOG2 POP POP POP JUMP JUMPDEST PUSH1 0x1 PUSH0 MLOAD PUSH1 0x20 PUSH2 0x3497 PUSH0 CODECOPY PUSH0 MLOAD SWAP1 PUSH0 MSTORE SSTORE JUMP JUMPDEST PUSH0 PUSH0 MLOAD PUSH1 0x20 PUSH2 0x3477 PUSH0 CODECOPY PUSH0 MLOAD SWAP1 PUSH0 MSTORE PUSH2 0x27A8 DUP5 DUP5 PUSH2 0x1E40 JUMP JUMPDEST PUSH2 0x2827 JUMPI PUSH0 DUP5 DUP2 MSTORE PUSH1 0x20 DUP3 DUP2 MSTORE PUSH1 0x40 DUP1 DUP4 KECCAK256 PUSH1 0x1 PUSH1 0x1 PUSH1 0xA0 SHL SUB DUP8 AND DUP5 MSTORE SWAP1 SWAP2 MSTORE SWAP1 KECCAK256 DUP1 SLOAD PUSH1 0xFF NOT AND PUSH1 0x1 OR SWAP1 SSTORE PUSH2 0x27DD CALLER SWAP1 JUMP JUMPDEST PUSH1 0x1 PUSH1 0x1 PUSH1 0xA0 SHL SUB AND DUP4 PUSH1 0x1 PUSH1 0x1 PUSH1 0xA0 SHL SUB AND DUP6 PUSH32 0x2F8788117E7EFF1D82E926EC794901D17C78024A50270940304540A733656F0D PUSH1 0x40 MLOAD PUSH1 0x40 MLOAD DUP1 SWAP2 SUB SWAP1 LOG4 PUSH1 0x1 SWAP2 POP POP PUSH2 0xC08 JUMP JUMPDEST PUSH0 SWAP2 POP POP PUSH2 0xC08 JUMP JUMPDEST CALLER PUSH2 0x2862 PUSH32 0x9016D09D72D40FDAE2FD8CEAC6B6234C7706214FD39C1CD1E609A0528C199300 SLOAD PUSH1 0x1 PUSH1 0x1 PUSH1 0xA0 SHL SUB AND SWAP1 JUMP JUMPDEST PUSH1 0x1 PUSH1 0x1 PUSH1 0xA0 SHL SUB AND EQ PUSH2 0x12FD JUMPI PUSH1 0x40 MLOAD PUSH4 0x118CDAA7 PUSH1 0xE0 SHL DUP2 MSTORE CALLER PUSH1 0x4 DUP3 ADD MSTORE PUSH1 0x24 ADD PUSH2 0x40F JUMP JUMPDEST PUSH1 0x40 MLOAD PUSH1 0x1 PUSH1 0x1 PUSH1 0xA0 SHL SUB DUP4 DUP2 AND PUSH1 0x24 DUP4 ADD MSTORE PUSH1 0x44 DUP3 ADD DUP4 SWAP1 MSTORE PUSH2 0x1647 SWAP2 DUP6 SWAP2 DUP3 AND SWAP1 PUSH4 0xA9059CBB SWAP1 PUSH1 0x64 ADD JUMPDEST PUSH1 0x40 MLOAD PUSH1 0x20 DUP2 DUP4 SUB SUB DUP2 MSTORE SWAP1 PUSH1 0x40 MSTORE SWAP2 POP PUSH1 0xE0 SHL PUSH1 0x20 DUP3 ADD DUP1 MLOAD PUSH1 0x1 PUSH1 0x1 PUSH1 0xE0 SHL SUB DUP4 DUP2 DUP4 AND OR DUP4 MSTORE POP POP POP POP PUSH2 0x2CA7 JUMP JUMPDEST PUSH0 DUP1 PUSH32 0xF0C57E16840DF040F15088DC2F81FE391C3923BEC73E23A9662EFC9C229C6A00 PUSH2 0xC08 JUMP JUMPDEST PUSH2 0x291A PUSH2 0x2D13 JUMP JUMPDEST PUSH2 0x1D37 DUP2 PUSH2 0x2D38 JUMP JUMPDEST PUSH2 0x12FD PUSH2 0x2D13 JUMP JUMPDEST PUSH2 0x2933 PUSH2 0x2D13 JUMP JUMPDEST PUSH2 0x12FD PUSH2 0x2D40 JUMP JUMPDEST PUSH0 PUSH0 MLOAD PUSH1 0x20 PUSH2 0x3477 PUSH0 CODECOPY PUSH0 MLOAD SWAP1 PUSH0 MSTORE PUSH2 0x2954 DUP5 DUP5 PUSH2 0x1E40 JUMP JUMPDEST ISZERO PUSH2 0x2827 JUMPI PUSH0 DUP5 DUP2 MSTORE PUSH1 0x20 DUP3 DUP2 MSTORE PUSH1 0x40 DUP1 DUP4 KECCAK256 PUSH1 0x1 PUSH1 0x1 PUSH1 0xA0 SHL SUB DUP8 AND DUP1 DUP6 MSTORE SWAP3 MSTORE DUP1 DUP4 KECCAK256 DUP1 SLOAD PUSH1 0xFF NOT AND SWAP1 SSTORE MLOAD CALLER SWAP3 DUP8 SWAP2 PUSH32 0xF6391F5C32D9C69D2A47EA670B442974B53935D1EDC7FD64EB21E047A839171B SWAP2 SWAP1 LOG4 PUSH1 0x1 SWAP2 POP POP PUSH2 0xC08 JUMP JUMPDEST PUSH0 PUSH2 0x29BD PUSH2 0x28EA JUMP JUMPDEST SLOAD PUSH8 0xFFFFFFFFFFFFFFFF AND SWAP2 SWAP1 POP JUMP JUMPDEST ADDRESS PUSH1 0x1 PUSH1 0x1 PUSH1 0xA0 SHL SUB PUSH32 0x0 AND EQ DUP1 PUSH2 0x2A53 JUMPI POP PUSH32 0x0 PUSH1 0x1 PUSH1 0x1 PUSH1 0xA0 SHL SUB AND PUSH2 0x2A47 PUSH0 MLOAD PUSH1 0x20 PUSH2 0x3417 PUSH0 CODECOPY PUSH0 MLOAD SWAP1 PUSH0 MSTORE SLOAD PUSH1 0x1 PUSH1 0x1 PUSH1 0xA0 SHL SUB AND SWAP1 JUMP JUMPDEST PUSH1 0x1 PUSH1 0x1 PUSH1 0xA0 SHL SUB AND EQ ISZERO JUMPDEST ISZERO PUSH2 0x12FD JUMPI PUSH1 0x40 MLOAD PUSH4 0x703E46DD PUSH1 0xE1 SHL DUP2 MSTORE PUSH1 0x4 ADD PUSH1 0x40 MLOAD DUP1 SWAP2 SUB SWAP1 REVERT JUMPDEST PUSH2 0x2A79 PUSH2 0x2830 JUMP JUMPDEST DUP1 PUSH1 0x1 PUSH1 0x1 PUSH1 0xA0 SHL SUB AND PUSH32 0x36AD2521EBAC3D572EEB7E618D4F6D0A8E1E6180634926360341D6BEB52BF9D8 PUSH1 0x1 PUSH1 0x40 MLOAD PUSH2 0x2AB5 SWAP2 DUP2 MSTORE PUSH1 0x20 ADD SWAP1 JUMP JUMPDEST PUSH1 0x40 MLOAD DUP1 SWAP2 SUB SWAP1 LOG2 POP JUMP JUMPDEST DUP2 PUSH1 0x1 PUSH1 0x1 PUSH1 0xA0 SHL SUB AND PUSH4 0x52D1902D PUSH1 0x40 MLOAD DUP2 PUSH4 0xFFFFFFFF AND PUSH1 0xE0 SHL DUP2 MSTORE PUSH1 0x4 ADD PUSH1 0x20 PUSH1 0x40 MLOAD DUP1 DUP4 SUB DUP2 DUP7 GAS STATICCALL SWAP3 POP POP POP DUP1 ISZERO PUSH2 0x2B1A JUMPI POP PUSH1 0x40 DUP1 MLOAD PUSH1 0x1F RETURNDATASIZE SWAP1 DUP2 ADD PUSH1 0x1F NOT AND DUP3 ADD SWAP1 SWAP3 MSTORE PUSH2 0x2B17 SWAP2 DUP2 ADD SWAP1 PUSH2 0x328C JUMP JUMPDEST PUSH1 0x1 JUMPDEST PUSH2 0x2B42 JUMPI PUSH1 0x40 MLOAD PUSH4 0x4C9C8CE3 PUSH1 0xE0 SHL DUP2 MSTORE PUSH1 0x1 PUSH1 0x1 PUSH1 0xA0 SHL SUB DUP4 AND PUSH1 0x4 DUP3 ADD MSTORE PUSH1 0x24 ADD PUSH2 0x40F JUMP JUMPDEST PUSH0 MLOAD PUSH1 0x20 PUSH2 0x3417 PUSH0 CODECOPY PUSH0 MLOAD SWAP1 PUSH0 MSTORE DUP2 EQ PUSH2 0x2B72 JUMPI PUSH1 0x40 MLOAD PUSH4 0x2A875269 PUSH1 0xE2 SHL DUP2 MSTORE PUSH1 0x4 DUP2 ADD DUP3 SWAP1 MSTORE PUSH1 0x24 ADD PUSH2 0x40F JUMP JUMPDEST PUSH2 0x1647 DUP4 DUP4 PUSH2 0x2D48 JUMP JUMPDEST ADDRESS PUSH1 0x1 PUSH1 0x1 PUSH1 0xA0 SHL SUB PUSH32 0x0 AND EQ PUSH2 0x12FD JUMPI PUSH1 0x40 MLOAD PUSH4 0x703E46DD PUSH1 0xE1 SHL DUP2 MSTORE PUSH1 0x4 ADD PUSH1 0x40 MLOAD DUP1 SWAP2 SUB SWAP1 REVERT JUMPDEST PUSH32 0x9016D09D72D40FDAE2FD8CEAC6B6234C7706214FD39C1CD1E609A0528C199300 DUP1 SLOAD PUSH1 0x1 PUSH1 0x1 PUSH1 0xA0 SHL SUB NOT DUP2 AND PUSH1 0x1 PUSH1 0x1 PUSH1 0xA0 SHL SUB DUP5 DUP2 AND SWAP2 DUP3 OR DUP5 SSTORE PUSH1 0x40 MLOAD SWAP3 AND SWAP2 DUP3 SWAP1 PUSH32 0x8BE0079C531659141344CD1FD0A4F28419497F9722A3DAAFE3B4186F6B6457E0 SWAP1 PUSH0 SWAP1 LOG3 POP POP POP JUMP JUMPDEST PUSH1 0x40 MLOAD PUSH1 0x1 PUSH1 0x1 PUSH1 0xA0 SHL SUB DUP5 DUP2 AND PUSH1 0x24 DUP4 ADD MSTORE DUP4 DUP2 AND PUSH1 0x44 DUP4 ADD MSTORE PUSH1 0x64 DUP3 ADD DUP4 SWAP1 MSTORE PUSH2 0x108C SWAP2 DUP7 SWAP2 DUP3 AND SWAP1 PUSH4 0x23B872DD SWAP1 PUSH1 0x84 ADD PUSH2 0x28B8 JUMP JUMPDEST PUSH2 0x2C78 DUP3 DUP3 PUSH2 0x1E40 JUMP JUMPDEST PUSH2 0x19E2 JUMPI PUSH1 0x40 MLOAD PUSH4 0xE2517D3F PUSH1 0xE0 SHL DUP2 MSTORE PUSH1 0x1 PUSH1 0x1 PUSH1 0xA0 SHL SUB DUP3 AND PUSH1 0x4 DUP3 ADD MSTORE PUSH1 0x24 DUP2 ADD DUP4 SWAP1 MSTORE PUSH1 0x44 ADD PUSH2 0x40F JUMP JUMPDEST PUSH0 PUSH0 PUSH1 0x20 PUSH0 DUP5 MLOAD PUSH1 0x20 DUP7 ADD PUSH0 DUP9 GAS CALL DUP1 PUSH2 0x2CC6 JUMPI PUSH1 0x40 MLOAD RETURNDATASIZE PUSH0 DUP3 RETURNDATACOPY RETURNDATASIZE DUP2 REVERT JUMPDEST POP POP PUSH0 MLOAD RETURNDATASIZE SWAP2 POP DUP2 ISZERO PUSH2 0x2CDD JUMPI DUP1 PUSH1 0x1 EQ ISZERO PUSH2 0x2CEA JUMP JUMPDEST PUSH1 0x1 PUSH1 0x1 PUSH1 0xA0 SHL SUB DUP5 AND EXTCODESIZE ISZERO JUMPDEST ISZERO PUSH2 0x108C JUMPI PUSH1 0x40 MLOAD PUSH4 0x5274AFE7 PUSH1 0xE0 SHL DUP2 MSTORE PUSH1 0x1 PUSH1 0x1 PUSH1 0xA0 SHL SUB DUP6 AND PUSH1 0x4 DUP3 ADD MSTORE PUSH1 0x24 ADD PUSH2 0x40F JUMP JUMPDEST PUSH2 0x2D1B PUSH2 0x2D9D JUMP JUMPDEST PUSH2 0x12FD JUMPI PUSH1 0x40 MLOAD PUSH4 0x1AFCD79F PUSH1 0xE3 SHL DUP2 MSTORE PUSH1 0x4 ADD PUSH1 0x40 MLOAD DUP1 SWAP2 SUB SWAP1 REVERT JUMPDEST PUSH2 0x2233 PUSH2 0x2D13 JUMP JUMPDEST PUSH2 0x277C PUSH2 0x2D13 JUMP JUMPDEST PUSH2 0x2D51 DUP3 PUSH2 0x2DB6 JUMP JUMPDEST PUSH1 0x40 MLOAD PUSH1 0x1 PUSH1 0x1 PUSH1 0xA0 SHL SUB DUP4 AND SWAP1 PUSH32 0xBC7CD75A20EE27FD9ADEBAB32041F755214DBC6BFFA90CC0225B39DA2E5C2D3B SWAP1 PUSH0 SWAP1 LOG2 DUP1 MLOAD ISZERO PUSH2 0x2D95 JUMPI PUSH2 0x1647 DUP3 DUP3 PUSH2 0x2E19 JUMP JUMPDEST PUSH2 0x19E2 PUSH2 0x2E8B JUMP JUMPDEST PUSH0 PUSH2 0x2DA6 PUSH2 0x28EA JUMP JUMPDEST SLOAD PUSH1 0x1 PUSH1 0x40 SHL SWAP1 DIV PUSH1 0xFF AND SWAP2 SWAP1 POP JUMP JUMPDEST DUP1 PUSH1 0x1 PUSH1 0x1 PUSH1 0xA0 SHL SUB AND EXTCODESIZE PUSH0 SUB PUSH2 0x2DEB JUMPI PUSH1 0x40 MLOAD PUSH4 0x4C9C8CE3 PUSH1 0xE0 SHL DUP2 MSTORE PUSH1 0x1 PUSH1 0x1 PUSH1 0xA0 SHL SUB DUP3 AND PUSH1 0x4 DUP3 ADD MSTORE PUSH1 0x24 ADD PUSH2 0x40F JUMP JUMPDEST PUSH0 MLOAD PUSH1 0x20 PUSH2 0x3417 PUSH0 CODECOPY PUSH0 MLOAD SWAP1 PUSH0 MSTORE DUP1 SLOAD PUSH1 0x1 PUSH1 0x1 PUSH1 0xA0 SHL SUB NOT AND PUSH1 0x1 PUSH1 0x1 PUSH1 0xA0 SHL SUB SWAP3 SWAP1 SWAP3 AND SWAP2 SWAP1 SWAP2 OR SWAP1 SSTORE JUMP JUMPDEST PUSH1 0x60 PUSH0 PUSH0 DUP5 PUSH1 0x1 PUSH1 0x1 PUSH1 0xA0 SHL SUB AND DUP5 PUSH1 0x40 MLOAD PUSH2 0x2E35 SWAP2 SWAP1 PUSH2 0x3400 JUMP JUMPDEST PUSH0 PUSH1 0x40 MLOAD DUP1 DUP4 SUB DUP2 DUP6 GAS DELEGATECALL SWAP2 POP POP RETURNDATASIZE DUP1 PUSH0 DUP2 EQ PUSH2 0x2E6D JUMPI PUSH1 0x40 MLOAD SWAP2 POP PUSH1 0x1F NOT PUSH1 0x3F RETURNDATASIZE ADD AND DUP3 ADD PUSH1 0x40 MSTORE RETURNDATASIZE DUP3 MSTORE RETURNDATASIZE PUSH0 PUSH1 0x20 DUP5 ADD RETURNDATACOPY PUSH2 0x2E72 JUMP JUMPDEST PUSH1 0x60 SWAP2 POP JUMPDEST POP SWAP2 POP SWAP2 POP PUSH2 0x2E82 DUP6 DUP4 DUP4 PUSH2 0x2EAA JUMP JUMPDEST SWAP6 SWAP5 POP POP POP POP POP JUMP JUMPDEST CALLVALUE ISZERO PUSH2 0x12FD JUMPI PUSH1 0x40 MLOAD PUSH4 0xB398979F PUSH1 0xE0 SHL DUP2 MSTORE PUSH1 0x4 ADD PUSH1 0x40 MLOAD DUP1 SWAP2 SUB SWAP1 REVERT JUMPDEST PUSH1 0x60 DUP3 PUSH2 0x2EBF JUMPI PUSH2 0x2EBA DUP3 PUSH2 0x2F09 JUMP JUMPDEST PUSH2 0x2F02 JUMP JUMPDEST DUP2 MLOAD ISZERO DUP1 ISZERO PUSH2 0x2ED6 JUMPI POP PUSH1 0x1 PUSH1 0x1 PUSH1 0xA0 SHL SUB DUP5 AND EXTCODESIZE ISZERO JUMPDEST ISZERO PUSH2 0x2EFF JUMPI PUSH1 0x40 MLOAD PUSH4 0x9996B315 PUSH1 0xE0 SHL DUP2 MSTORE PUSH1 0x1 PUSH1 0x1 PUSH1 0xA0 SHL SUB DUP6 AND PUSH1 0x4 DUP3 ADD MSTORE PUSH1 0x24 ADD PUSH2 0x40F JUMP JUMPDEST POP DUP1 JUMPDEST SWAP4 SWAP3 POP POP POP JUMP JUMPDEST DUP1 MLOAD ISZERO PUSH2 0x2F18 JUMPI DUP1 MLOAD PUSH1 0x20 DUP3 ADD REVERT JUMPDEST PUSH1 0x40 MLOAD PUSH4 0xD6BDA275 PUSH1 0xE0 SHL DUP2 MSTORE PUSH1 0x4 ADD PUSH1 0x40 MLOAD DUP1 SWAP2 SUB SWAP1 REVERT JUMPDEST PUSH0 PUSH1 0x20 DUP3 DUP5 SUB SLT ISZERO PUSH2 0x2F41 JUMPI PUSH0 PUSH0 REVERT JUMPDEST DUP2 CALLDATALOAD PUSH1 0x1 PUSH1 0x1 PUSH1 0xE0 SHL SUB NOT DUP2 AND DUP2 EQ PUSH2 0x2F02 JUMPI PUSH0 PUSH0 REVERT JUMPDEST DUP1 CALLDATALOAD PUSH1 0x1 PUSH1 0x1 PUSH1 0xA0 SHL SUB DUP2 AND DUP2 EQ PUSH2 0x2F6E JUMPI PUSH0 PUSH0 REVERT JUMPDEST SWAP2 SWAP1 POP JUMP JUMPDEST PUSH0 PUSH0 PUSH0 PUSH1 0x60 DUP5 DUP7 SUB SLT ISZERO PUSH2 0x2F85 JUMPI PUSH0 PUSH0 REVERT JUMPDEST DUP4 CALLDATALOAD SWAP3 POP PUSH2 0x2F95 PUSH1 0x20 DUP6 ADD PUSH2 0x2F58 JUMP JUMPDEST SWAP3 SWAP6 SWAP3 SWAP5 POP POP POP PUSH1 0x40 SWAP2 SWAP1 SWAP2 ADD CALLDATALOAD SWAP1 JUMP JUMPDEST PUSH1 0x20 DUP2 MSTORE PUSH0 DUP3 MLOAD DUP1 PUSH1 0x20 DUP5 ADD MSTORE DUP1 PUSH1 0x20 DUP6 ADD PUSH1 0x40 DUP6 ADD MCOPY PUSH0 PUSH1 0x40 DUP3 DUP6 ADD ADD MSTORE PUSH1 0x40 PUSH1 0x1F NOT PUSH1 0x1F DUP4 ADD AND DUP5 ADD ADD SWAP2 POP POP SWAP3 SWAP2 POP POP JUMP JUMPDEST PUSH0 PUSH1 0x20 DUP3 DUP5 SUB SLT ISZERO PUSH2 0x2FEB JUMPI PUSH0 PUSH0 REVERT JUMPDEST POP CALLDATALOAD SWAP2 SWAP1 POP JUMP JUMPDEST PUSH0 PUSH0 PUSH1 0x40 DUP4 DUP6 SUB SLT ISZERO PUSH2 0x3003 JUMPI PUSH0 PUSH0 REVERT JUMPDEST DUP3 CALLDATALOAD SWAP2 POP PUSH2 0x3013 PUSH1 0x20 DUP5 ADD PUSH2 0x2F58 JUMP JUMPDEST SWAP1 POP SWAP3 POP SWAP3 SWAP1 POP JUMP JUMPDEST PUSH0 PUSH0 PUSH0 PUSH0 PUSH1 0x80 DUP6 DUP8 SUB SLT ISZERO PUSH2 0x302F JUMPI PUSH0 PUSH0 REVERT JUMPDEST PUSH2 0x3038 DUP6 PUSH2 0x2F58 JUMP JUMPDEST SWAP4 POP PUSH1 0x20 DUP6 ADD CALLDATALOAD SWAP3 POP PUSH2 0x304D PUSH1 0x40 DUP7 ADD PUSH2 0x2F58 JUMP JUMPDEST SWAP2 POP PUSH2 0x305B PUSH1 0x60 DUP7 ADD PUSH2 0x2F58 JUMP JUMPDEST SWAP1 POP SWAP3 SWAP6 SWAP2 SWAP5 POP SWAP3 POP JUMP JUMPDEST PUSH4 0x4E487B71 PUSH1 0xE0 SHL PUSH0 MSTORE PUSH1 0x41 PUSH1 0x4 MSTORE PUSH1 0x24 PUSH0 REVERT JUMPDEST PUSH0 PUSH0 PUSH8 0xFFFFFFFFFFFFFFFF DUP5 GT ISZERO PUSH2 0x3094 JUMPI PUSH2 0x3094 PUSH2 0x3066 JUMP JUMPDEST POP PUSH1 0x40 MLOAD PUSH1 0x1F NOT PUSH1 0x1F DUP6 ADD DUP2 AND PUSH1 0x3F ADD AND DUP2 ADD DUP2 DUP2 LT PUSH8 0xFFFFFFFFFFFFFFFF DUP3 GT OR ISZERO PUSH2 0x30C3 JUMPI PUSH2 0x30C3 PUSH2 0x3066 JUMP JUMPDEST PUSH1 0x40 MSTORE DUP4 DUP2 MSTORE SWAP1 POP DUP1 DUP3 DUP5 ADD DUP6 LT ISZERO PUSH2 0x30DA JUMPI PUSH0 PUSH0 REVERT JUMPDEST DUP4 DUP4 PUSH1 0x20 DUP4 ADD CALLDATACOPY PUSH0 PUSH1 0x20 DUP6 DUP4 ADD ADD MSTORE POP SWAP4 SWAP3 POP POP POP JUMP JUMPDEST PUSH0 DUP3 PUSH1 0x1F DUP4 ADD SLT PUSH2 0x3100 JUMPI PUSH0 PUSH0 REVERT JUMPDEST PUSH2 0x2F02 DUP4 DUP4 CALLDATALOAD PUSH1 0x20 DUP6 ADD PUSH2 0x307A JUMP JUMPDEST PUSH0 PUSH0 PUSH0 PUSH1 0x60 DUP5 DUP7 SUB SLT ISZERO PUSH2 0x3121 JUMPI PUSH0 PUSH0 REVERT JUMPDEST DUP4 CALLDATALOAD PUSH8 0xFFFFFFFFFFFFFFFF DUP2 GT ISZERO PUSH2 0x3137 JUMPI PUSH0 PUSH0 REVERT JUMPDEST PUSH2 0x3143 DUP7 DUP3 DUP8 ADD PUSH2 0x30F1 JUMP JUMPDEST SWAP4 POP POP PUSH2 0x3152 PUSH1 0x20 DUP6 ADD PUSH2 0x2F58 JUMP JUMPDEST SWAP2 POP PUSH1 0x40 DUP5 ADD CALLDATALOAD PUSH8 0xFFFFFFFFFFFFFFFF DUP2 GT ISZERO PUSH2 0x316D JUMPI PUSH0 PUSH0 REVERT JUMPDEST PUSH2 0x3179 DUP7 DUP3 DUP8 ADD PUSH2 0x30F1 JUMP JUMPDEST SWAP2 POP POP SWAP3 POP SWAP3 POP SWAP3 JUMP JUMPDEST PUSH0 PUSH1 0x20 DUP3 DUP5 SUB SLT ISZERO PUSH2 0x3193 JUMPI PUSH0 PUSH0 REVERT JUMPDEST PUSH2 0x2F02 DUP3 PUSH2 0x2F58 JUMP JUMPDEST PUSH0 PUSH0 PUSH1 0x40 DUP4 DUP6 SUB SLT ISZERO PUSH2 0x31AD JUMPI PUSH0 PUSH0 REVERT JUMPDEST PUSH2 0x31B6 DUP4 PUSH2 0x2F58 JUMP JUMPDEST SWAP2 POP PUSH1 0x20 DUP4 ADD CALLDATALOAD PUSH8 0xFFFFFFFFFFFFFFFF DUP2 GT ISZERO PUSH2 0x31D1 JUMPI PUSH0 PUSH0 REVERT JUMPDEST DUP4 ADD PUSH1 0x1F DUP2 ADD DUP6 SGT PUSH2 0x31E1 JUMPI PUSH0 PUSH0 REVERT JUMPDEST PUSH2 0x31F0 DUP6 DUP3 CALLDATALOAD PUSH1 0x20 DUP5 ADD PUSH2 0x307A JUMP JUMPDEST SWAP2 POP POP SWAP3 POP SWAP3 SWAP1 POP JUMP JUMPDEST PUSH0 PUSH0 PUSH1 0x40 DUP4 DUP6 SUB SLT ISZERO PUSH2 0x320B JUMPI PUSH0 PUSH0 REVERT JUMPDEST PUSH2 0x3214 DUP4 PUSH2 0x2F58 JUMP JUMPDEST SWAP5 PUSH1 0x20 SWAP4 SWAP1 SWAP4 ADD CALLDATALOAD SWAP4 POP POP POP JUMP JUMPDEST PUSH0 PUSH0 PUSH1 0x40 DUP4 DUP6 SUB SLT ISZERO PUSH2 0x3233 JUMPI PUSH0 PUSH0 REVERT JUMPDEST POP POP DUP1 CALLDATALOAD SWAP3 PUSH1 0x20 SWAP1 SWAP2 ADD CALLDATALOAD SWAP2 POP JUMP JUMPDEST PUSH4 0x4E487B71 PUSH1 0xE0 SHL PUSH0 MSTORE PUSH1 0x11 PUSH1 0x4 MSTORE PUSH1 0x24 PUSH0 REVERT JUMPDEST DUP1 DUP3 MUL DUP2 ISZERO DUP3 DUP3 DIV DUP5 EQ OR PUSH2 0xC08 JUMPI PUSH2 0xC08 PUSH2 0x3242 JUMP JUMPDEST PUSH0 DUP3 PUSH2 0x3287 JUMPI PUSH4 0x4E487B71 PUSH1 0xE0 SHL PUSH0 MSTORE PUSH1 0x12 PUSH1 0x4 MSTORE PUSH1 0x24 PUSH0 REVERT JUMPDEST POP DIV SWAP1 JUMP JUMPDEST PUSH0 PUSH1 0x20 DUP3 DUP5 SUB SLT ISZERO PUSH2 0x329C JUMPI PUSH0 PUSH0 REVERT JUMPDEST POP MLOAD SWAP2 SWAP1 POP JUMP JUMPDEST DUP1 DUP3 ADD DUP1 DUP3 GT ISZERO PUSH2 0xC08 JUMPI PUSH2 0xC08 PUSH2 0x3242 JUMP JUMPDEST DUP2 DUP2 SUB DUP2 DUP2 GT ISZERO PUSH2 0xC08 JUMPI PUSH2 0xC08 PUSH2 0x3242 JUMP JUMPDEST PUSH1 0x1 DUP2 DUP2 SHR SWAP1 DUP3 AND DUP1 PUSH2 0x32DD JUMPI PUSH1 0x7F DUP3 AND SWAP2 POP JUMPDEST PUSH1 0x20 DUP3 LT DUP2 SUB PUSH2 0x32FB JUMPI PUSH4 0x4E487B71 PUSH1 0xE0 SHL PUSH0 MSTORE PUSH1 0x22 PUSH1 0x4 MSTORE PUSH1 0x24 PUSH0 REVERT JUMPDEST POP SWAP2 SWAP1 POP JUMP JUMPDEST PUSH1 0x1F DUP3 GT ISZERO PUSH2 0x1647 JUMPI DUP1 PUSH0 MSTORE PUSH1 0x20 PUSH0 KECCAK256 PUSH1 0x1F DUP5 ADD PUSH1 0x5 SHR DUP2 ADD PUSH1 0x20 DUP6 LT ISZERO PUSH2 0x3326 JUMPI POP DUP1 JUMPDEST PUSH1 0x1F DUP5 ADD PUSH1 0x5 SHR DUP3 ADD SWAP2 POP JUMPDEST DUP2 DUP2 LT ISZERO PUSH2 0x1995 JUMPI PUSH0 DUP2 SSTORE PUSH1 0x1 ADD PUSH2 0x3332 JUMP JUMPDEST DUP2 MLOAD PUSH8 0xFFFFFFFFFFFFFFFF DUP2 GT ISZERO PUSH2 0x335F JUMPI PUSH2 0x335F PUSH2 0x3066 JUMP JUMPDEST PUSH2 0x3373 DUP2 PUSH2 0x336D DUP5 SLOAD PUSH2 0x32C9 JUMP JUMPDEST DUP5 PUSH2 0x3301 JUMP JUMPDEST PUSH1 0x20 PUSH1 0x1F DUP3 GT PUSH1 0x1 DUP2 EQ PUSH2 0x33A5 JUMPI PUSH0 DUP4 ISZERO PUSH2 0x338E JUMPI POP DUP5 DUP3 ADD MLOAD JUMPDEST PUSH0 NOT PUSH1 0x3 DUP6 SWAP1 SHL SHR NOT AND PUSH1 0x1 DUP5 SWAP1 SHL OR DUP5 SSTORE PUSH2 0x1995 JUMP JUMPDEST PUSH0 DUP5 DUP2 MSTORE PUSH1 0x20 DUP2 KECCAK256 PUSH1 0x1F NOT DUP6 AND SWAP2 JUMPDEST DUP3 DUP2 LT ISZERO PUSH2 0x33D4 JUMPI DUP8 DUP6 ADD MLOAD DUP3 SSTORE PUSH1 0x20 SWAP5 DUP6 ADD SWAP5 PUSH1 0x1 SWAP1 SWAP3 ADD SWAP2 ADD PUSH2 0x33B4 JUMP JUMPDEST POP DUP5 DUP3 LT ISZERO PUSH2 0x33F1 JUMPI DUP7 DUP5 ADD MLOAD PUSH0 NOT PUSH1 0x3 DUP8 SWAP1 SHL PUSH1 0xF8 AND SHR NOT AND DUP2 SSTORE JUMPDEST POP POP POP POP PUSH1 0x1 SWAP1 DUP2 SHL ADD SWAP1 SSTORE POP JUMP JUMPDEST PUSH0 DUP3 MLOAD DUP1 PUSH1 0x20 DUP6 ADD DUP5 MCOPY PUSH0 SWAP3 ADD SWAP2 DUP3 MSTORE POP SWAP2 SWAP1 POP JUMP INVALID CALLDATASIZE ADDMOD SWAP5 LOG1 EXTCODESIZE LOG1 LOG3 0x21 MOD PUSH8 0xC828492DB98DCA3E KECCAK256 PUSH23 0xCC3735A920A3CA505D382BBC1083C8BD456CB885ADF739 SWAP10 SWAP9 0xDA GAS 0xF8 0x1F KECCAK256 0xB2 0xD6 0xAA 0xC9 SDIV MUL PUSH0 0xF9 0xAA BLOBBASEFEE 0xA8 0xD6 SHL 0x2C PUSH1 0x62 GT PUSH22 0xA6F1E4198714BC7B01C33E5AD43ACD70906B7EBC5FCB GAS PUSH7 0x1FDD1F1502DD7B 0xC7 0xDE 0xC4 0xDC 0xEE 0xDD 0xA7 PUSH22 0xE58DD541E08A116C6C53815C0BD028192F7B6268009B PUSH24 0x9B17422D0DF92223018B32B4D1FA46E071723D6817E2486D STOP EXTCODESIZE 0xEC 0xC5 PUSH0 STOP DUP9 RETURN POP SWAP16 0xE TIMESTAMP CODECOPY 0x1F 0x2D SWAP5 0xEB 0xFB 0x2A CALLDATACOPY 0xCB 0xD0 PUSH25 0x2B1B8F73715330017F4663290B8117A2646970667358221220 0x25 0x4F PUSH16 0x9F3BB05C533DDA339E36ED82738BE406 SWAP10 0xAE SMOD 0xD6 0xBE SWAP1 ADD SWAP5 SAR JUMPI 0xA9 DUP7 MULMOD PUSH5 0x736F6C6343 STOP ADDMOD SHR STOP CALLER "},"methodIdentifiers":{"DCO_END_TIME()":"d59d6917","DEFAULT_ADMIN_ROLE()":"a217fddf","DonateToZCW()":"82b13f96","ONE_YEAR()":"16d3bfbb","RELEASER_ROLE()":"ac28af24","SEVEN_MONTHS()":"fc742aa9","Status()":"45f09ce9","UPGRADE_INTERFACE_VERSION()":"ad3cb1cc","UpdateAllocations(address,uint256)":"74c451f5","VERSION()":"ffa1ad74","WALLET_SUPPLIER_ROLE()":"0178124c","ZCW()":"d278b682","addReleaser(address)":"d34a7720","btcAddress()":"f7d76ae5","ethAddress()":"41398b15","getAvailableForWithdrawal()":"c44633e9","getQuote(uint256,uint256)":"758af3ab","getRoleAdmin(bytes32)":"248a9ca3","getTimePeriods()":"79c4a910","getTimeUntilRelease(address)":"8bf76f6c","getTokenPrice()":"4b94f50e","getTokenRemaining()":"d1786610","getTokenSold()":"94d77363","getTotalDonations()":"777c658f","getTotalLockedTokens()":"a0ed3ac5","getUserLockedTokens(address)":"e88f8ebd","getVersion()":"0d8e6e2c","getWithdrawableAmount(address)":"f6777175","grantRole(bytes32,address)":"2f2ff15d","hasRole(bytes32,address)":"91d14854","incrementThreshold()":"b31b9ecf","initialize(address,uint256,address,address)":"358394d8","injectSupply(uint256)":"a0f9bf70","isInitialized()":"392e53cd","owner()":"8da5cb5b","proxiableUUID()":"52d1902d","releaseZKTC(uint256,address,uint256)":"180c1e8c","removeReleaser(address)":"be0cbc2d","renounceOwnership()":"715018a6","renounceRole(bytes32,address)":"36568abe","revokeRole(bytes32,address)":"d547741f","setDCOEndTime(uint256)":"49f6cf99","setTimePeriods(uint256,uint256)":"b840adbc","setTokenPrice(uint256)":"6a61e5fc","setWalletAddresses(string,address,string)":"3f01c9cf","setWalletSupplier(address)":"40000dc8","solAddress()":"1ce24e16","supportsInterface(bytes4)":"01ffc9a7","threshold()":"42cde4e8","tokenPrice()":"7ff9b596","tokenSold()":"519ee19e","totalDonations()":"de2ed893","totalUsdGathered()":"018a7b13","transferOwnership(address)":"f2fde38b","updatePriceThresholds(uint256)":"22fec823","updateThreshold(uint256)":"d7d7442f","updateUsdtGathered(uint256)":"28b4f5c4","updateZCW(address)":"d69a5990","upgradeToAndCall(address,bytes)":"4f1ef286","userLockedTokens(address)":"3f03684c","withdraw()":"3ccfd60b","withdrawAllZKTC()":"3462f006","withdrawParticularZKTC(uint256)":"f5e633bb","zkToken()":"7d8c87aa"}}}}}